{
  "_format": "hh-sol-artifact-1",
  "contractName": "Auction",
  "sourceName": "contracts/Auction.sol",
  "abi": [
    {
      "inputs": [],
      "stateMutability": "nonpayable",
      "type": "constructor"
    },
    {
      "anonymous": false,
      "inputs": [
        {
          "indexed": true,
          "internalType": "address",
          "name": "owner",
          "type": "address"
        },
        {
          "indexed": true,
          "internalType": "address",
          "name": "approved",
          "type": "address"
        },
        {
          "indexed": true,
          "internalType": "uint256",
          "name": "tokenId",
          "type": "uint256"
        }
      ],
      "name": "Approval",
      "type": "event"
    },
    {
      "anonymous": false,
      "inputs": [
        {
          "indexed": true,
          "internalType": "address",
          "name": "owner",
          "type": "address"
        },
        {
          "indexed": true,
          "internalType": "address",
          "name": "operator",
          "type": "address"
        },
        {
          "indexed": false,
          "internalType": "bool",
          "name": "approved",
          "type": "bool"
        }
      ],
      "name": "ApprovalForAll",
      "type": "event"
    },
    {
      "anonymous": false,
      "inputs": [
        {
          "indexed": true,
          "internalType": "uint256",
          "name": "tokenId",
          "type": "uint256"
        },
        {
          "indexed": false,
          "internalType": "address",
          "name": "seller",
          "type": "address"
        },
        {
          "indexed": false,
          "internalType": "address",
          "name": "buyer",
          "type": "address"
        },
        {
          "indexed": false,
          "internalType": "uint256",
          "name": "price",
          "type": "uint256"
        }
      ],
      "name": "AuctionFinished",
      "type": "event"
    },
    {
      "anonymous": false,
      "inputs": [
        {
          "indexed": true,
          "internalType": "uint256",
          "name": "tokenId",
          "type": "uint256"
        },
        {
          "indexed": false,
          "internalType": "uint256",
          "name": "minPrice",
          "type": "uint256"
        },
        {
          "indexed": false,
          "internalType": "address",
          "name": "seller",
          "type": "address"
        },
        {
          "indexed": false,
          "internalType": "bool",
          "name": "currentlyListed",
          "type": "bool"
        }
      ],
      "name": "AuctionInitialized",
      "type": "event"
    },
    {
      "anonymous": false,
      "inputs": [
        {
          "indexed": true,
          "internalType": "address",
          "name": "from",
          "type": "address"
        },
        {
          "indexed": true,
          "internalType": "address",
          "name": "to",
          "type": "address"
        },
        {
          "indexed": true,
          "internalType": "uint256",
          "name": "tokenId",
          "type": "uint256"
        }
      ],
      "name": "Transfer",
      "type": "event"
    },
    {
      "inputs": [
        {
          "internalType": "address",
          "name": "to",
          "type": "address"
        },
        {
          "internalType": "uint256",
          "name": "tokenId",
          "type": "uint256"
        }
      ],
      "name": "approve",
      "outputs": [],
      "stateMutability": "nonpayable",
      "type": "function"
    },
    {
      "inputs": [
        {
          "internalType": "address",
          "name": "owner",
          "type": "address"
        }
      ],
      "name": "balanceOf",
      "outputs": [
        {
          "internalType": "uint256",
          "name": "",
          "type": "uint256"
        }
      ],
      "stateMutability": "view",
      "type": "function"
    },
    {
      "inputs": [
        {
          "internalType": "uint256",
          "name": "tokenId",
          "type": "uint256"
        },
        {
          "internalType": "uint256",
          "name": "bidPrice",
          "type": "uint256"
        },
        {
          "internalType": "address",
          "name": "bidder",
          "type": "address"
        }
      ],
      "name": "bid",
      "outputs": [],
      "stateMutability": "payable",
      "type": "function"
    },
    {
      "inputs": [
        {
          "internalType": "string",
          "name": "tokenURI",
          "type": "string"
        },
        {
          "internalType": "address",
          "name": "seller",
          "type": "address"
        }
      ],
      "name": "createProductToken",
      "outputs": [],
      "stateMutability": "nonpayable",
      "type": "function"
    },
    {
      "inputs": [
        {
          "internalType": "uint256",
          "name": "tokenId",
          "type": "uint256"
        }
      ],
      "name": "getApproved",
      "outputs": [
        {
          "internalType": "address",
          "name": "",
          "type": "address"
        }
      ],
      "stateMutability": "view",
      "type": "function"
    },
    {
      "inputs": [
        {
          "internalType": "uint256",
          "name": "tokenId",
          "type": "uint256"
        }
      ],
      "name": "getAuction",
      "outputs": [
        {
          "components": [
            {
              "internalType": "uint256",
              "name": "productTokenId",
              "type": "uint256"
            },
            {
              "internalType": "address payable",
              "name": "seller",
              "type": "address"
            },
            {
              "internalType": "address",
              "name": "lastBidder",
              "type": "address"
            },
            {
              "internalType": "uint256",
              "name": "bestPrice",
              "type": "uint256"
            },
            {
              "internalType": "uint256",
              "name": "bidPosition",
              "type": "uint256"
            },
            {
              "internalType": "bool",
              "name": "currentlyListed",
              "type": "bool"
            }
          ],
          "internalType": "struct Auction.ProductAuction",
          "name": "",
          "type": "tuple"
        }
      ],
      "stateMutability": "view",
      "type": "function"
    },
    {
      "inputs": [],
      "name": "getCurrentTokenId",
      "outputs": [
        {
          "internalType": "string",
          "name": "",
          "type": "string"
        }
      ],
      "stateMutability": "view",
      "type": "function"
    },
    {
      "inputs": [],
      "name": "getListPrice",
      "outputs": [
        {
          "internalType": "uint256",
          "name": "",
          "type": "uint256"
        }
      ],
      "stateMutability": "view",
      "type": "function"
    },
    {
      "inputs": [],
      "name": "getMaxBidAuction",
      "outputs": [
        {
          "internalType": "uint256",
          "name": "",
          "type": "uint256"
        }
      ],
      "stateMutability": "view",
      "type": "function"
    },
    {
      "inputs": [
        {
          "internalType": "uint256",
          "name": "tokenId",
          "type": "uint256"
        },
        {
          "internalType": "uint256",
          "name": "initialPrice",
          "type": "uint256"
        }
      ],
      "name": "initializeAuction",
      "outputs": [],
      "stateMutability": "payable",
      "type": "function"
    },
    {
      "inputs": [
        {
          "internalType": "address",
          "name": "owner",
          "type": "address"
        },
        {
          "internalType": "address",
          "name": "operator",
          "type": "address"
        }
      ],
      "name": "isApprovedForAll",
      "outputs": [
        {
          "internalType": "bool",
          "name": "",
          "type": "bool"
        }
      ],
      "stateMutability": "view",
      "type": "function"
    },
    {
      "inputs": [],
      "name": "name",
      "outputs": [
        {
          "internalType": "string",
          "name": "",
          "type": "string"
        }
      ],
      "stateMutability": "view",
      "type": "function"
    },
    {
      "inputs": [
        {
          "internalType": "uint256",
          "name": "tokenId",
          "type": "uint256"
        }
      ],
      "name": "ownerOf",
      "outputs": [
        {
          "internalType": "address",
          "name": "",
          "type": "address"
        }
      ],
      "stateMutability": "view",
      "type": "function"
    },
    {
      "inputs": [
        {
          "internalType": "address",
          "name": "from",
          "type": "address"
        },
        {
          "internalType": "address",
          "name": "to",
          "type": "address"
        },
        {
          "internalType": "uint256",
          "name": "tokenId",
          "type": "uint256"
        }
      ],
      "name": "safeTransferFrom",
      "outputs": [],
      "stateMutability": "nonpayable",
      "type": "function"
    },
    {
      "inputs": [
        {
          "internalType": "address",
          "name": "from",
          "type": "address"
        },
        {
          "internalType": "address",
          "name": "to",
          "type": "address"
        },
        {
          "internalType": "uint256",
          "name": "tokenId",
          "type": "uint256"
        },
        {
          "internalType": "bytes",
          "name": "data",
          "type": "bytes"
        }
      ],
      "name": "safeTransferFrom",
      "outputs": [],
      "stateMutability": "nonpayable",
      "type": "function"
    },
    {
      "inputs": [
        {
          "internalType": "address",
          "name": "operator",
          "type": "address"
        },
        {
          "internalType": "bool",
          "name": "approved",
          "type": "bool"
        }
      ],
      "name": "setApprovalForAll",
      "outputs": [],
      "stateMutability": "nonpayable",
      "type": "function"
    },
    {
      "inputs": [
        {
          "internalType": "bytes4",
          "name": "interfaceId",
          "type": "bytes4"
        }
      ],
      "name": "supportsInterface",
      "outputs": [
        {
          "internalType": "bool",
          "name": "",
          "type": "bool"
        }
      ],
      "stateMutability": "view",
      "type": "function"
    },
    {
      "inputs": [],
      "name": "symbol",
      "outputs": [
        {
          "internalType": "string",
          "name": "",
          "type": "string"
        }
      ],
      "stateMutability": "view",
      "type": "function"
    },
    {
      "inputs": [
        {
          "internalType": "uint256",
          "name": "tokenId",
          "type": "uint256"
        }
      ],
      "name": "tokenURI",
      "outputs": [
        {
          "internalType": "string",
          "name": "",
          "type": "string"
        }
      ],
      "stateMutability": "view",
      "type": "function"
    },
    {
      "inputs": [
        {
          "internalType": "address",
          "name": "from",
          "type": "address"
        },
        {
          "internalType": "address",
          "name": "to",
          "type": "address"
        },
        {
          "internalType": "uint256",
          "name": "tokenId",
          "type": "uint256"
        }
      ],
      "name": "transferFrom",
      "outputs": [],
      "stateMutability": "nonpayable",
      "type": "function"
    },
    {
      "inputs": [
        {
          "internalType": "uint256",
          "name": "_listPrice",
          "type": "uint256"
        }
      ],
      "name": "updateListPrice",
      "outputs": [],
      "stateMutability": "payable",
      "type": "function"
    },
    {
      "inputs": [
        {
          "internalType": "uint256",
          "name": "_maxBidNumber",
          "type": "uint256"
        }
      ],
      "name": "updateMaxBidNumber",
      "outputs": [],
      "stateMutability": "payable",
      "type": "function"
    }
  ],
  "bytecode": "0x60806040523480156200001157600080fd5b506040518060400160405280600781526020017f41756374696f6e000000000000000000000000000000000000000000000000008152506040518060400160405280600481526020017f41554354000000000000000000000000000000000000000000000000000000008152508160009080519060200190620000969291906200010e565b508060019080519060200190620000af9291906200010e565b50505033600860006101000a81548173ffffffffffffffffffffffffffffffffffffffff021916908373ffffffffffffffffffffffffffffffffffffffff160217905550600a600981905550655af3107a4000600b8190555062000223565b8280546200011c90620001ed565b90600052602060002090601f0160209004810192826200014057600085556200018c565b82601f106200015b57805160ff19168380011785556200018c565b828001600101855582156200018c579182015b828111156200018b5782518255916020019190600101906200016e565b5b5090506200019b91906200019f565b5090565b5b80821115620001ba576000816000905550600101620001a0565b5090565b7f4e487b7100000000000000000000000000000000000000000000000000000000600052602260045260246000fd5b600060028204905060018216806200020657607f821691505b602082108114156200021d576200021c620001be565b5b50919050565b613f6280620002336000396000f3fe6080604052600436106101355760003560e01c806370a08231116100ab578063b88d4fde1161006f578063b88d4fde1461042b578063c322579c14610454578063c60d0d3214610470578063c87b56dd1461048c578063e985e9c5146104c9578063f903d2bd1461050657610135565b806370a0823114610341578063742f0a901461037e57806378bd79351461039a57806395d89b41146103d7578063a22cb4651461040257610135565b806323b872dd116100fd57806323b872dd146102335780632a15966b1461025c57806342842e0e1461028557806356189236146102ae5780636352211e146102d957806368f1945f1461031657610135565b806301ffc9a71461013a57806306fdde0314610177578063081812fc146101a2578063095ea7b3146101df5780631abd382f14610208575b600080fd5b34801561014657600080fd5b50610161600480360381019061015c9190612886565b610522565b60405161016e91906128ce565b60405180910390f35b34801561018357600080fd5b5061018c610604565b6040516101999190612982565b60405180910390f35b3480156101ae57600080fd5b506101c960048036038101906101c491906129da565b610696565b6040516101d69190612a48565b60405180910390f35b3480156101eb57600080fd5b5061020660048036038101906102019190612a8f565b6106dc565b005b34801561021457600080fd5b5061021d6107f4565b60405161022a9190612ade565b60405180910390f35b34801561023f57600080fd5b5061025a60048036038101906102559190612af9565b6107fe565b005b34801561026857600080fd5b50610283600480360381019061027e9190612c81565b61085e565b005b34801561029157600080fd5b506102ac60048036038101906102a79190612af9565b610933565b005b3480156102ba57600080fd5b506102c3610953565b6040516102d09190612982565b60405180910390f35b3480156102e557600080fd5b5061030060048036038101906102fb91906129da565b61096c565b60405161030d9190612a48565b60405180910390f35b34801561032257600080fd5b5061032b6109f3565b6040516103389190612ade565b60405180910390f35b34801561034d57600080fd5b5061036860048036038101906103639190612cdd565b6109fd565b6040516103759190612ade565b60405180910390f35b61039860048036038101906103939190612d0a565b610ab5565b005b3480156103a657600080fd5b506103c160048036038101906103bc91906129da565b610ccd565b6040516103ce9190612e26565b60405180910390f35b3480156103e357600080fd5b506103ec610ddf565b6040516103f99190612982565b60405180910390f35b34801561040e57600080fd5b5061042960048036038101906104249190612e6d565b610e71565b005b34801561043757600080fd5b50610452600480360381019061044d9190612f4e565b610e87565b005b61046e600480360381019061046991906129da565b610ee9565b005b61048a60048036038101906104859190612fd1565b610f83565b005b34801561049857600080fd5b506104b360048036038101906104ae91906129da565b6111c5565b6040516104c09190612982565b60405180910390f35b3480156104d557600080fd5b506104f060048036038101906104eb9190613011565b6112d8565b6040516104fd91906128ce565b60405180910390f35b610520600480360381019061051b91906129da565b61136c565b005b60007f80ac58cd000000000000000000000000000000000000000000000000000000007bffffffffffffffffffffffffffffffffffffffffffffffffffffffff1916827bffffffffffffffffffffffffffffffffffffffffffffffffffffffff191614806105ed57507f5b5e139f000000000000000000000000000000000000000000000000000000007bffffffffffffffffffffffffffffffffffffffffffffffffffffffff1916827bffffffffffffffffffffffffffffffffffffffffffffffffffffffff1916145b806105fd57506105fc82611406565b5b9050919050565b60606000805461061390613080565b80601f016020809104026020016040519081016040528092919081815260200182805461063f90613080565b801561068c5780601f106106615761010080835404028352916020019161068c565b820191906000526020600020905b81548152906001019060200180831161066f57829003601f168201915b5050505050905090565b60006106a182611470565b6004600083815260200190815260200160002060009054906101000a900473ffffffffffffffffffffffffffffffffffffffff169050919050565b60006106e78261096c565b90508073ffffffffffffffffffffffffffffffffffffffff168373ffffffffffffffffffffffffffffffffffffffff161415610758576040517f08c379a000000000000000000000000000000000000000000000000000000000815260040161074f90613124565b60405180910390fd5b8073ffffffffffffffffffffffffffffffffffffffff166107776114bb565b73ffffffffffffffffffffffffffffffffffffffff1614806107a657506107a5816107a06114bb565b6112d8565b5b6107e5576040517f08c379a00000000000000000000000000000000000000000000000000000000081526004016107dc906131b6565b60405180910390fd5b6107ef83836114c3565b505050565b6000600954905090565b61080f6108096114bb565b8261157c565b61084e576040517f08c379a000000000000000000000000000000000000000000000000000000000815260040161084590613248565b60405180910390fd5b610859838383611611565b505050565b3373ffffffffffffffffffffffffffffffffffffffff16600860009054906101000a900473ffffffffffffffffffffffffffffffffffffffff1673ffffffffffffffffffffffffffffffffffffffff16146108ee576040517f08c379a00000000000000000000000000000000000000000000000000000000081526004016108e5906132b4565b60405180910390fd5b6108f8600761190b565b60006109046007611921565b9050610910338261192f565b61091a818461194d565b61092430826114c3565b61092e81836119c1565b505050565b61094e83838360405180602001604052806000815250610e87565b505050565b60606109676109626007611921565b611b05565b905090565b60008061097883611bdd565b9050600073ffffffffffffffffffffffffffffffffffffffff168173ffffffffffffffffffffffffffffffffffffffff1614156109ea576040517f08c379a00000000000000000000000000000000000000000000000000000000081526004016109e190613320565b60405180910390fd5b80915050919050565b6000600b54905090565b60008073ffffffffffffffffffffffffffffffffffffffff168273ffffffffffffffffffffffffffffffffffffffff161415610a6e576040517f08c379a0000000000000000000000000000000000000000000000000000000008152600401610a65906133b2565b60405180910390fd5b600360008373ffffffffffffffffffffffffffffffffffffffff1673ffffffffffffffffffffffffffffffffffffffff168152602001908152602001600020549050919050565b3373ffffffffffffffffffffffffffffffffffffffff16600860009054906101000a900473ffffffffffffffffffffffffffffffffffffffff1673ffffffffffffffffffffffffffffffffffffffff1614610b45576040517f08c379a0000000000000000000000000000000000000000000000000000000008152600401610b3c90613444565b60405180910390fd5b600a600084815260200190815260200160002060050160009054906101000a900460ff16610ba8576040517f08c379a0000000000000000000000000000000000000000000000000000000008152600401610b9f906134b0565b60405180910390fd5b600a6000848152602001908152602001600020600301548211610c00576040517f08c379a0000000000000000000000000000000000000000000000000000000008152600401610bf790613542565b60405180910390fd5b81600a60008581526020019081526020016000206003018190555080600a600085815260200190815260200160002060020160006101000a81548173ffffffffffffffffffffffffffffffffffffffff021916908373ffffffffffffffffffffffffffffffffffffffff1602179055506001600a60008581526020019081526020016000206004016000828254610c979190613591565b92505081905550600954600a6000858152602001908152602001600020600401541415610cc857610cc783611c1a565b5b505050565b610cd5612713565b600a60008381526020019081526020016000206040518060c0016040529081600082015481526020016001820160009054906101000a900473ffffffffffffffffffffffffffffffffffffffff1673ffffffffffffffffffffffffffffffffffffffff1673ffffffffffffffffffffffffffffffffffffffff1681526020016002820160009054906101000a900473ffffffffffffffffffffffffffffffffffffffff1673ffffffffffffffffffffffffffffffffffffffff1673ffffffffffffffffffffffffffffffffffffffff16815260200160038201548152602001600482015481526020016005820160009054906101000a900460ff1615151515815250509050919050565b606060018054610dee90613080565b80601f0160208091040260200160405190810160405280929190818152602001828054610e1a90613080565b8015610e675780601f10610e3c57610100808354040283529160200191610e67565b820191906000526020600020905b815481529060010190602001808311610e4a57829003601f168201915b5050505050905090565b610e83610e7c6114bb565b8383611dd8565b5050565b610e98610e926114bb565b8361157c565b610ed7576040517f08c379a0000000000000000000000000000000000000000000000000000000008152600401610ece90613248565b60405180910390fd5b610ee384848484611f45565b50505050565b3373ffffffffffffffffffffffffffffffffffffffff16600860009054906101000a900473ffffffffffffffffffffffffffffffffffffffff1673ffffffffffffffffffffffffffffffffffffffff1614610f79576040517f08c379a0000000000000000000000000000000000000000000000000000000008152600401610f7090613659565b60405180910390fd5b80600b8190555050565b3373ffffffffffffffffffffffffffffffffffffffff16600860009054906101000a900473ffffffffffffffffffffffffffffffffffffffff1673ffffffffffffffffffffffffffffffffffffffff1614611013576040517f08c379a000000000000000000000000000000000000000000000000000000000815260040161100a906136eb565b60405180910390fd5b600b543414611057576040517f08c379a000000000000000000000000000000000000000000000000000000000815260040161104e9061377d565b60405180910390fd5b60001515600a600084815260200190815260200160002060050160009054906101000a900460ff161515146110c1576040517f08c379a00000000000000000000000000000000000000000000000000000000081526004016110b89061380f565b60405180910390fd5b60008111611104576040517f08c379a00000000000000000000000000000000000000000000000000000000081526004016110fb9061387b565b60405180910390fd5b80600a6000848152602001908152602001600020600301819055506001600a600084815260200190815260200160002060050160006101000a81548160ff021916908315150217905550817f99b96b6f4fd045a23f0c7e9af6549db91ea9399606e53fce4985c2c5d5beb6e982600a600086815260200190815260200160002060010160009054906101000a900473ffffffffffffffffffffffffffffffffffffffff1660016040516111b9939291906138fa565b60405180910390a25050565b60606111d082611470565b60006006600084815260200190815260200160002080546111f090613080565b80601f016020809104026020016040519081016040528092919081815260200182805461121c90613080565b80156112695780601f1061123e57610100808354040283529160200191611269565b820191906000526020600020905b81548152906001019060200180831161124c57829003601f168201915b50505050509050600061127a611fa1565b90506000815114156112905781925050506112d3565b6000825111156112c55780826040516020016112ad92919061396d565b604051602081830303815290604052925050506112d3565b6112ce84611fb8565b925050505b919050565b6000600560008473ffffffffffffffffffffffffffffffffffffffff1673ffffffffffffffffffffffffffffffffffffffff16815260200190815260200160002060008373ffffffffffffffffffffffffffffffffffffffff1673ffffffffffffffffffffffffffffffffffffffff16815260200190815260200160002060009054906101000a900460ff16905092915050565b3373ffffffffffffffffffffffffffffffffffffffff16600860009054906101000a900473ffffffffffffffffffffffffffffffffffffffff1673ffffffffffffffffffffffffffffffffffffffff16146113fc576040517f08c379a00000000000000000000000000000000000000000000000000000000081526004016113f390613a03565b60405180910390fd5b8060098190555050565b60007f01ffc9a7000000000000000000000000000000000000000000000000000000007bffffffffffffffffffffffffffffffffffffffffffffffffffffffff1916827bffffffffffffffffffffffffffffffffffffffffffffffffffffffff1916149050919050565b61147981612020565b6114b8576040517f08c379a00000000000000000000000000000000000000000000000000000000081526004016114af90613320565b60405180910390fd5b50565b600033905090565b816004600083815260200190815260200160002060006101000a81548173ffffffffffffffffffffffffffffffffffffffff021916908373ffffffffffffffffffffffffffffffffffffffff160217905550808273ffffffffffffffffffffffffffffffffffffffff166115368361096c565b73ffffffffffffffffffffffffffffffffffffffff167f8c5be1e5ebec7d5bd14f71427d1e84f3dd0314c0f7b2291e5b200ac8c7c3b92560405160405180910390a45050565b6000806115888361096c565b90508073ffffffffffffffffffffffffffffffffffffffff168473ffffffffffffffffffffffffffffffffffffffff1614806115ca57506115c981856112d8565b5b8061160857508373ffffffffffffffffffffffffffffffffffffffff166115f084610696565b73ffffffffffffffffffffffffffffffffffffffff16145b91505092915050565b8273ffffffffffffffffffffffffffffffffffffffff166116318261096c565b73ffffffffffffffffffffffffffffffffffffffff1614611687576040517f08c379a000000000000000000000000000000000000000000000000000000000815260040161167e90613a95565b60405180910390fd5b600073ffffffffffffffffffffffffffffffffffffffff168273ffffffffffffffffffffffffffffffffffffffff1614156116f7576040517f08c379a00000000000000000000000000000000000000000000000000000000081526004016116ee90613b27565b60405180910390fd5b6117048383836001612061565b8273ffffffffffffffffffffffffffffffffffffffff166117248261096c565b73ffffffffffffffffffffffffffffffffffffffff161461177a576040517f08c379a000000000000000000000000000000000000000000000000000000000815260040161177190613a95565b60405180910390fd5b6004600082815260200190815260200160002060006101000a81549073ffffffffffffffffffffffffffffffffffffffff02191690556001600360008573ffffffffffffffffffffffffffffffffffffffff1673ffffffffffffffffffffffffffffffffffffffff168152602001908152602001600020600082825403925050819055506001600360008473ffffffffffffffffffffffffffffffffffffffff1673ffffffffffffffffffffffffffffffffffffffff16815260200190815260200160002060008282540192505081905550816002600083815260200190815260200160002060006101000a81548173ffffffffffffffffffffffffffffffffffffffff021916908373ffffffffffffffffffffffffffffffffffffffff160217905550808273ffffffffffffffffffffffffffffffffffffffff168473ffffffffffffffffffffffffffffffffffffffff167fddf252ad1be2c89b69c2b068fc378daa952ba7f163c4a11628f55a4df523b3ef60405160405180910390a46119068383836001612187565b505050565b6001816000016000828254019250508190555050565b600081600001549050919050565b61194982826040518060200160405280600081525061218d565b5050565b61195682612020565b611995576040517f08c379a000000000000000000000000000000000000000000000000000000000815260040161198c90613bb9565b60405180910390fd5b806006600084815260200190815260200160002090805190602001906119bc929190612777565b505050565b6040518060c001604052808381526020018273ffffffffffffffffffffffffffffffffffffffff1681526020018273ffffffffffffffffffffffffffffffffffffffff168152602001600081526020016000815260200160001515815250600a60008481526020019081526020016000206000820151816000015560208201518160010160006101000a81548173ffffffffffffffffffffffffffffffffffffffff021916908373ffffffffffffffffffffffffffffffffffffffff16021790555060408201518160020160006101000a81548173ffffffffffffffffffffffffffffffffffffffff021916908373ffffffffffffffffffffffffffffffffffffffff160217905550606082015181600301556080820151816004015560a08201518160050160006101000a81548160ff0219169083151502179055509050505050565b606060006001611b14846121e8565b01905060008167ffffffffffffffff811115611b3357611b32612b56565b5b6040519080825280601f01601f191660200182016040528015611b655781602001600182028036833780820191505090505b509050600082602001820190505b600115611bd2578080600190039150507f3031323334353637383961626364656600000000000000000000000000000000600a86061a8153600a8581611bbc57611bbb613bd9565b5b0494506000851415611bcd57611bd2565b611b73565b819350505050919050565b60006002600083815260200190815260200160002060009054906101000a900473ffffffffffffffffffffffffffffffffffffffff169050919050565b611c7d600860009054906101000a900473ffffffffffffffffffffffffffffffffffffffff16600a600084815260200190815260200160002060020160009054906101000a900473ffffffffffffffffffffffffffffffffffffffff1683611611565b600860009054906101000a900473ffffffffffffffffffffffffffffffffffffffff1673ffffffffffffffffffffffffffffffffffffffff166108fc600b549081150290604051600060405180830381858888f19350505050158015611ce7573d6000803e3d6000fd5b506000600a600083815260200190815260200160002060050160006101000a81548160ff021916908315150217905550807ffa491e148fe93128a73f56621b508cb48fa1bc1480f6a3a9790c00224f23752e600a600084815260200190815260200160002060010160009054906101000a900473ffffffffffffffffffffffffffffffffffffffff16600a600085815260200190815260200160002060020160009054906101000a900473ffffffffffffffffffffffffffffffffffffffff16600a600086815260200190815260200160002060030154604051611dcd93929190613c08565b60405180910390a250565b8173ffffffffffffffffffffffffffffffffffffffff168373ffffffffffffffffffffffffffffffffffffffff161415611e47576040517f08c379a0000000000000000000000000000000000000000000000000000000008152600401611e3e90613c8b565b60405180910390fd5b80600560008573ffffffffffffffffffffffffffffffffffffffff1673ffffffffffffffffffffffffffffffffffffffff16815260200190815260200160002060008473ffffffffffffffffffffffffffffffffffffffff1673ffffffffffffffffffffffffffffffffffffffff16815260200190815260200160002060006101000a81548160ff0219169083151502179055508173ffffffffffffffffffffffffffffffffffffffff168373ffffffffffffffffffffffffffffffffffffffff167f17307eab39ab6107e8899845ad3d59bd9653f200f220920489ca2b5937696c3183604051611f3891906128ce565b60405180910390a3505050565b611f50848484611611565b611f5c8484848461233b565b611f9b576040517f08c379a0000000000000000000000000000000000000000000000000000000008152600401611f9290613d1d565b60405180910390fd5b50505050565b606060405180602001604052806000815250905090565b6060611fc382611470565b6000611fcd611fa1565b90506000815111611fed5760405180602001604052806000815250612018565b80611ff784611b05565b60405160200161200892919061396d565b6040516020818303038152906040525b915050919050565b60008073ffffffffffffffffffffffffffffffffffffffff1661204283611bdd565b73ffffffffffffffffffffffffffffffffffffffff1614159050919050565b600181111561218157600073ffffffffffffffffffffffffffffffffffffffff168473ffffffffffffffffffffffffffffffffffffffff16146120f55780600360008673ffffffffffffffffffffffffffffffffffffffff1673ffffffffffffffffffffffffffffffffffffffff16815260200190815260200160002060008282546120ed9190613d3d565b925050819055505b600073ffffffffffffffffffffffffffffffffffffffff168373ffffffffffffffffffffffffffffffffffffffff16146121805780600360008573ffffffffffffffffffffffffffffffffffffffff1673ffffffffffffffffffffffffffffffffffffffff16815260200190815260200160002060008282546121789190613591565b925050819055505b5b50505050565b50505050565b61219783836124d2565b6121a4600084848461233b565b6121e3576040517f08c379a00000000000000000000000000000000000000000000000000000000081526004016121da90613d1d565b60405180910390fd5b505050565b600080600090507a184f03e93ff9f4daa797ed6e38ed64bf6a1f0100000000000000008310612246577a184f03e93ff9f4daa797ed6e38ed64bf6a1f010000000000000000838161223c5761223b613bd9565b5b0492506040810190505b6d04ee2d6d415b85acef81000000008310612283576d04ee2d6d415b85acef8100000000838161227957612278613bd9565b5b0492506020810190505b662386f26fc1000083106122b257662386f26fc1000083816122a8576122a7613bd9565b5b0492506010810190505b6305f5e10083106122db576305f5e10083816122d1576122d0613bd9565b5b0492506008810190505b61271083106123005761271083816122f6576122f5613bd9565b5b0492506004810190505b60648310612323576064838161231957612318613bd9565b5b0492506002810190505b600a8310612332576001810190505b80915050919050565b600061235c8473ffffffffffffffffffffffffffffffffffffffff166126f0565b156124c5578373ffffffffffffffffffffffffffffffffffffffff1663150b7a026123856114bb565b8786866040518563ffffffff1660e01b81526004016123a79493929190613dc6565b602060405180830381600087803b1580156123c157600080fd5b505af19250505080156123f257506040513d601f19601f820116820180604052508101906123ef9190613e27565b60015b612475573d8060008114612422576040519150601f19603f3d011682016040523d82523d6000602084013e612427565b606091505b5060008151141561246d576040517f08c379a000000000000000000000000000000000000000000000000000000000815260040161246490613d1d565b60405180910390fd5b805181602001fd5b63150b7a0260e01b7bffffffffffffffffffffffffffffffffffffffffffffffffffffffff1916817bffffffffffffffffffffffffffffffffffffffffffffffffffffffff1916149150506124ca565b600190505b949350505050565b600073ffffffffffffffffffffffffffffffffffffffff168273ffffffffffffffffffffffffffffffffffffffff161415612542576040517f08c379a000000000000000000000000000000000000000000000000000000000815260040161253990613ea0565b60405180910390fd5b61254b81612020565b1561258b576040517f08c379a000000000000000000000000000000000000000000000000000000000815260040161258290613f0c565b60405180910390fd5b612599600083836001612061565b6125a281612020565b156125e2576040517f08c379a00000000000000000000000000000000000000000000000000000000081526004016125d990613f0c565b60405180910390fd5b6001600360008473ffffffffffffffffffffffffffffffffffffffff1673ffffffffffffffffffffffffffffffffffffffff16815260200190815260200160002060008282540192505081905550816002600083815260200190815260200160002060006101000a81548173ffffffffffffffffffffffffffffffffffffffff021916908373ffffffffffffffffffffffffffffffffffffffff160217905550808273ffffffffffffffffffffffffffffffffffffffff16600073ffffffffffffffffffffffffffffffffffffffff167fddf252ad1be2c89b69c2b068fc378daa952ba7f163c4a11628f55a4df523b3ef60405160405180910390a46126ec600083836001612187565b5050565b6000808273ffffffffffffffffffffffffffffffffffffffff163b119050919050565b6040518060c0016040528060008152602001600073ffffffffffffffffffffffffffffffffffffffff168152602001600073ffffffffffffffffffffffffffffffffffffffff16815260200160008152602001600081526020016000151581525090565b82805461278390613080565b90600052602060002090601f0160209004810192826127a557600085556127ec565b82601f106127be57805160ff19168380011785556127ec565b828001600101855582156127ec579182015b828111156127eb5782518255916020019190600101906127d0565b5b5090506127f991906127fd565b5090565b5b808211156128165760008160009055506001016127fe565b5090565b6000604051905090565b600080fd5b600080fd5b60007fffffffff0000000000000000000000000000000000000000000000000000000082169050919050565b6128638161282e565b811461286e57600080fd5b50565b6000813590506128808161285a565b92915050565b60006020828403121561289c5761289b612824565b5b60006128aa84828501612871565b91505092915050565b60008115159050919050565b6128c8816128b3565b82525050565b60006020820190506128e360008301846128bf565b92915050565b600081519050919050565b600082825260208201905092915050565b60005b83811015612923578082015181840152602081019050612908565b83811115612932576000848401525b50505050565b6000601f19601f8301169050919050565b6000612954826128e9565b61295e81856128f4565b935061296e818560208601612905565b61297781612938565b840191505092915050565b6000602082019050818103600083015261299c8184612949565b905092915050565b6000819050919050565b6129b7816129a4565b81146129c257600080fd5b50565b6000813590506129d4816129ae565b92915050565b6000602082840312156129f0576129ef612824565b5b60006129fe848285016129c5565b91505092915050565b600073ffffffffffffffffffffffffffffffffffffffff82169050919050565b6000612a3282612a07565b9050919050565b612a4281612a27565b82525050565b6000602082019050612a5d6000830184612a39565b92915050565b612a6c81612a27565b8114612a7757600080fd5b50565b600081359050612a8981612a63565b92915050565b60008060408385031215612aa657612aa5612824565b5b6000612ab485828601612a7a565b9250506020612ac5858286016129c5565b9150509250929050565b612ad8816129a4565b82525050565b6000602082019050612af36000830184612acf565b92915050565b600080600060608486031215612b1257612b11612824565b5b6000612b2086828701612a7a565b9350506020612b3186828701612a7a565b9250506040612b42868287016129c5565b9150509250925092565b600080fd5b600080fd5b7f4e487b7100000000000000000000000000000000000000000000000000000000600052604160045260246000fd5b612b8e82612938565b810181811067ffffffffffffffff82111715612bad57612bac612b56565b5b80604052505050565b6000612bc061281a565b9050612bcc8282612b85565b919050565b600067ffffffffffffffff821115612bec57612beb612b56565b5b612bf582612938565b9050602081019050919050565b82818337600083830152505050565b6000612c24612c1f84612bd1565b612bb6565b905082815260208101848484011115612c4057612c3f612b51565b5b612c4b848285612c02565b509392505050565b600082601f830112612c6857612c67612b4c565b5b8135612c78848260208601612c11565b91505092915050565b60008060408385031215612c9857612c97612824565b5b600083013567ffffffffffffffff811115612cb657612cb5612829565b5b612cc285828601612c53565b9250506020612cd385828601612a7a565b9150509250929050565b600060208284031215612cf357612cf2612824565b5b6000612d0184828501612a7a565b91505092915050565b600080600060608486031215612d2357612d22612824565b5b6000612d31868287016129c5565b9350506020612d42868287016129c5565b9250506040612d5386828701612a7a565b9150509250925092565b612d66816129a4565b82525050565b6000612d7782612a07565b9050919050565b612d8781612d6c565b82525050565b612d9681612a27565b82525050565b612da5816128b3565b82525050565b60c082016000820151612dc16000850182612d5d565b506020820151612dd46020850182612d7e565b506040820151612de76040850182612d8d565b506060820151612dfa6060850182612d5d565b506080820151612e0d6080850182612d5d565b5060a0820151612e2060a0850182612d9c565b50505050565b600060c082019050612e3b6000830184612dab565b92915050565b612e4a816128b3565b8114612e5557600080fd5b50565b600081359050612e6781612e41565b92915050565b60008060408385031215612e8457612e83612824565b5b6000612e9285828601612a7a565b9250506020612ea385828601612e58565b9150509250929050565b600067ffffffffffffffff821115612ec857612ec7612b56565b5b612ed182612938565b9050602081019050919050565b6000612ef1612eec84612ead565b612bb6565b905082815260208101848484011115612f0d57612f0c612b51565b5b612f18848285612c02565b509392505050565b600082601f830112612f3557612f34612b4c565b5b8135612f45848260208601612ede565b91505092915050565b60008060008060808587031215612f6857612f67612824565b5b6000612f7687828801612a7a565b9450506020612f8787828801612a7a565b9350506040612f98878288016129c5565b925050606085013567ffffffffffffffff811115612fb957612fb8612829565b5b612fc587828801612f20565b91505092959194509250565b60008060408385031215612fe857612fe7612824565b5b6000612ff6858286016129c5565b9250506020613007858286016129c5565b9150509250929050565b6000806040838503121561302857613027612824565b5b600061303685828601612a7a565b925050602061304785828601612a7a565b9150509250929050565b7f4e487b7100000000000000000000000000000000000000000000000000000000600052602260045260246000fd5b6000600282049050600182168061309857607f821691505b602082108114156130ac576130ab613051565b5b50919050565b7f4552433732313a20617070726f76616c20746f2063757272656e74206f776e6560008201527f7200000000000000000000000000000000000000000000000000000000000000602082015250565b600061310e6021836128f4565b9150613119826130b2565b604082019050919050565b6000602082019050818103600083015261313d81613101565b9050919050565b7f4552433732313a20617070726f76652063616c6c6572206973206e6f7420746f60008201527f6b656e206f776e6572206f7220617070726f76656420666f7220616c6c000000602082015250565b60006131a0603d836128f4565b91506131ab82613144565b604082019050919050565b600060208201905081810360008301526131cf81613193565b9050919050565b7f4552433732313a2063616c6c6572206973206e6f7420746f6b656e206f776e6560008201527f72206f7220617070726f76656400000000000000000000000000000000000000602082015250565b6000613232602d836128f4565b915061323d826131d6565b604082019050919050565b6000602082019050818103600083015261326181613225565b9050919050565b7f4f6e6c79206f776e65722063616e2063726561746520746f6b656e0000000000600082015250565b600061329e601b836128f4565b91506132a982613268565b602082019050919050565b600060208201905081810360008301526132cd81613291565b9050919050565b7f4552433732313a20696e76616c696420746f6b656e2049440000000000000000600082015250565b600061330a6018836128f4565b9150613315826132d4565b602082019050919050565b60006020820190508181036000830152613339816132fd565b9050919050565b7f4552433732313a2061646472657373207a65726f206973206e6f74206120766160008201527f6c6964206f776e65720000000000000000000000000000000000000000000000602082015250565b600061339c6029836128f4565b91506133a782613340565b604082019050919050565b600060208201905081810360008301526133cb8161338f565b9050919050565b7f4f6e6c79206f776e65722063616e206163636573732074686973206d6574686f60008201527f6400000000000000000000000000000000000000000000000000000000000000602082015250565b600061342e6021836128f4565b9150613439826133d2565b604082019050919050565b6000602082019050818103600083015261345d81613421565b9050919050565b7f4e6f204c69737465642050726f6475637420666f756e64000000000000000000600082015250565b600061349a6017836128f4565b91506134a582613464565b602082019050919050565b600060208201905081810360008301526134c98161348d565b9050919050565b7f746865207072696365206d75737420626520686967686572207468616e20746860008201527f65206c6173742042696400000000000000000000000000000000000000000000602082015250565b600061352c602a836128f4565b9150613537826134d0565b604082019050919050565b6000602082019050818103600083015261355b8161351f565b9050919050565b7f4e487b7100000000000000000000000000000000000000000000000000000000600052601160045260246000fd5b600061359c826129a4565b91506135a7836129a4565b9250827fffffffffffffffffffffffffffffffffffffffffffffffffffffffffffffffff038211156135dc576135db613562565b5b828201905092915050565b7f4f6e6c79206f776e65722063616e20757064617465206c697374696e6720707260008201527f6963650000000000000000000000000000000000000000000000000000000000602082015250565b60006136436023836128f4565b915061364e826135e7565b604082019050919050565b6000602082019050818103600083015261367281613636565b9050919050565b7f4f6e6c79206f776e65722063616e20696e697469616c697a652061756374696f60008201527f6e00000000000000000000000000000000000000000000000000000000000000602082015250565b60006136d56021836128f4565b91506136e082613679565b604082019050919050565b60006020820190508181036000830152613704816136c8565b9050919050565b7f416d6f756e7420666f72206c697374696e67207072696365206973206469666660008201527f6572656e74000000000000000000000000000000000000000000000000000000602082015250565b60006137676025836128f4565b91506137728261370b565b604082019050919050565b600060208201905081810360008301526137968161375a565b9050919050565b7f546869732061756374696f6e2068617320616c7265616479206265656e20737460008201527f6172746564000000000000000000000000000000000000000000000000000000602082015250565b60006137f96025836128f4565b91506138048261379d565b604082019050919050565b60006020820190508181036000830152613828816137ec565b9050919050565b7f74686520707269636520697320696e76616c6964000000000000000000000000600082015250565b60006138656014836128f4565b91506138708261382f565b602082019050919050565b6000602082019050818103600083015261389481613858565b9050919050565b6000819050919050565b60006138c06138bb6138b684612a07565b61389b565b612a07565b9050919050565b60006138d2826138a5565b9050919050565b60006138e4826138c7565b9050919050565b6138f4816138d9565b82525050565b600060608201905061390f6000830186612acf565b61391c60208301856138eb565b61392960408301846128bf565b949350505050565b600081905092915050565b6000613947826128e9565b6139518185613931565b9350613961818560208601612905565b80840191505092915050565b6000613979828561393c565b9150613985828461393c565b91508190509392505050565b7f4f6e6c79206f776e65722063616e20757064617465206d61784269644e756d6260008201527f6572000000000000000000000000000000000000000000000000000000000000602082015250565b60006139ed6022836128f4565b91506139f882613991565b604082019050919050565b60006020820190508181036000830152613a1c816139e0565b9050919050565b7f4552433732313a207472616e736665722066726f6d20696e636f72726563742060008201527f6f776e6572000000000000000000000000000000000000000000000000000000602082015250565b6000613a7f6025836128f4565b9150613a8a82613a23565b604082019050919050565b60006020820190508181036000830152613aae81613a72565b9050919050565b7f4552433732313a207472616e7366657220746f20746865207a65726f2061646460008201527f7265737300000000000000000000000000000000000000000000000000000000602082015250565b6000613b116024836128f4565b9150613b1c82613ab5565b604082019050919050565b60006020820190508181036000830152613b4081613b04565b9050919050565b7f45524337323155524953746f726167653a2055524920736574206f66206e6f6e60008201527f6578697374656e7420746f6b656e000000000000000000000000000000000000602082015250565b6000613ba3602e836128f4565b9150613bae82613b47565b604082019050919050565b60006020820190508181036000830152613bd281613b96565b9050919050565b7f4e487b7100000000000000000000000000000000000000000000000000000000600052601260045260246000fd5b6000606082019050613c1d60008301866138eb565b613c2a6020830185612a39565b613c376040830184612acf565b949350505050565b7f4552433732313a20617070726f766520746f2063616c6c657200000000000000600082015250565b6000613c756019836128f4565b9150613c8082613c3f565b602082019050919050565b60006020820190508181036000830152613ca481613c68565b9050919050565b7f4552433732313a207472616e7366657220746f206e6f6e20455243373231526560008201527f63656976657220696d706c656d656e7465720000000000000000000000000000602082015250565b6000613d076032836128f4565b9150613d1282613cab565b604082019050919050565b60006020820190508181036000830152613d3681613cfa565b9050919050565b6000613d48826129a4565b9150613d53836129a4565b925082821015613d6657613d65613562565b5b828203905092915050565b600081519050919050565b600082825260208201905092915050565b6000613d9882613d71565b613da28185613d7c565b9350613db2818560208601612905565b613dbb81612938565b840191505092915050565b6000608082019050613ddb6000830187612a39565b613de86020830186612a39565b613df56040830185612acf565b8181036060830152613e078184613d8d565b905095945050505050565b600081519050613e218161285a565b92915050565b600060208284031215613e3d57613e3c612824565b5b6000613e4b84828501613e12565b91505092915050565b7f4552433732313a206d696e7420746f20746865207a65726f2061646472657373600082015250565b6000613e8a6020836128f4565b9150613e9582613e54565b602082019050919050565b60006020820190508181036000830152613eb981613e7d565b9050919050565b7f4552433732313a20746f6b656e20616c7265616479206d696e74656400000000600082015250565b6000613ef6601c836128f4565b9150613f0182613ec0565b602082019050919050565b60006020820190508181036000830152613f2581613ee9565b905091905056fea2646970667358221220e6cddb2b5ae42ca99a4f82fe91335bbf0bd51b0b01d5c2db7b5e37f8cca2ef0c64736f6c63430008090033",
  "linkReferences": {},
  "deployedLinkReferences": {}
}