{
  "_format": "hh-sol-artifact-1",
  "contractName": "Auction",
  "sourceName": "contracts/Auction.sol",
  "abi": [
    {
      "inputs": [],
      "stateMutability": "nonpayable",
      "type": "constructor"
    },
    {
      "anonymous": false,
      "inputs": [
        {
          "indexed": true,
          "internalType": "address",
          "name": "owner",
          "type": "address"
        },
        {
          "indexed": true,
          "internalType": "address",
          "name": "approved",
          "type": "address"
        },
        {
          "indexed": true,
          "internalType": "uint256",
          "name": "tokenId",
          "type": "uint256"
        }
      ],
      "name": "Approval",
      "type": "event"
    },
    {
      "anonymous": false,
      "inputs": [
        {
          "indexed": true,
          "internalType": "address",
          "name": "owner",
          "type": "address"
        },
        {
          "indexed": true,
          "internalType": "address",
          "name": "operator",
          "type": "address"
        },
        {
          "indexed": false,
          "internalType": "bool",
          "name": "approved",
          "type": "bool"
        }
      ],
      "name": "ApprovalForAll",
      "type": "event"
    },
    {
      "anonymous": false,
      "inputs": [
        {
          "indexed": true,
          "internalType": "uint256",
          "name": "tokenId",
          "type": "uint256"
        },
        {
          "indexed": false,
          "internalType": "address",
          "name": "seller",
          "type": "address"
        },
        {
          "indexed": false,
          "internalType": "address",
          "name": "buyer",
          "type": "address"
        },
        {
          "indexed": false,
          "internalType": "uint256",
          "name": "price",
          "type": "uint256"
        }
      ],
      "name": "AuctionFinished",
      "type": "event"
    },
    {
      "anonymous": false,
      "inputs": [
        {
          "indexed": true,
          "internalType": "uint256",
          "name": "tokenId",
          "type": "uint256"
        },
        {
          "indexed": false,
          "internalType": "uint256",
          "name": "minPrice",
          "type": "uint256"
        },
        {
          "indexed": false,
          "internalType": "address",
          "name": "seller",
          "type": "address"
        },
        {
          "indexed": false,
          "internalType": "bool",
          "name": "currentlyListed",
          "type": "bool"
        }
      ],
      "name": "AuctionInitialized",
      "type": "event"
    },
    {
      "anonymous": false,
      "inputs": [
        {
          "indexed": true,
          "internalType": "address",
          "name": "from",
          "type": "address"
        },
        {
          "indexed": true,
          "internalType": "address",
          "name": "to",
          "type": "address"
        },
        {
          "indexed": true,
          "internalType": "uint256",
          "name": "tokenId",
          "type": "uint256"
        }
      ],
      "name": "Transfer",
      "type": "event"
    },
    {
      "inputs": [
        {
          "internalType": "address",
          "name": "to",
          "type": "address"
        },
        {
          "internalType": "uint256",
          "name": "tokenId",
          "type": "uint256"
        }
      ],
      "name": "approve",
      "outputs": [],
      "stateMutability": "nonpayable",
      "type": "function"
    },
    {
      "inputs": [
        {
          "internalType": "address",
          "name": "owner",
          "type": "address"
        }
      ],
      "name": "balanceOf",
      "outputs": [
        {
          "internalType": "uint256",
          "name": "",
          "type": "uint256"
        }
      ],
      "stateMutability": "view",
      "type": "function"
    },
    {
      "inputs": [
        {
          "internalType": "uint256",
          "name": "tokenId",
          "type": "uint256"
        },
        {
          "internalType": "uint256",
          "name": "bidPrice",
          "type": "uint256"
        },
        {
          "internalType": "address",
          "name": "bidder",
          "type": "address"
        }
      ],
      "name": "bid",
      "outputs": [],
      "stateMutability": "payable",
      "type": "function"
    },
    {
      "inputs": [
        {
          "internalType": "string",
          "name": "tokenURI",
          "type": "string"
        },
        {
          "internalType": "address",
          "name": "seller",
          "type": "address"
        }
      ],
      "name": "createProductToken",
      "outputs": [],
      "stateMutability": "nonpayable",
      "type": "function"
    },
    {
      "inputs": [
        {
          "internalType": "uint256",
          "name": "tokenId",
          "type": "uint256"
        }
      ],
      "name": "getApproved",
      "outputs": [
        {
          "internalType": "address",
          "name": "",
          "type": "address"
        }
      ],
      "stateMutability": "view",
      "type": "function"
    },
    {
      "inputs": [
        {
          "internalType": "uint256",
          "name": "tokenId",
          "type": "uint256"
        }
      ],
      "name": "getAuction",
      "outputs": [
        {
          "components": [
            {
              "internalType": "uint256",
              "name": "productTokenId",
              "type": "uint256"
            },
            {
              "internalType": "address payable",
              "name": "seller",
              "type": "address"
            },
            {
              "internalType": "address payable",
              "name": "lastBidder",
              "type": "address"
            },
            {
              "internalType": "uint256",
              "name": "bestPrice",
              "type": "uint256"
            },
            {
              "internalType": "uint256",
              "name": "bidPosition",
              "type": "uint256"
            },
            {
              "internalType": "bool",
              "name": "currentlyListed",
              "type": "bool"
            }
          ],
          "internalType": "struct Auction.ProductAuction",
          "name": "",
          "type": "tuple"
        }
      ],
      "stateMutability": "view",
      "type": "function"
    },
    {
      "inputs": [],
      "name": "getCurrentTokenId",
      "outputs": [
        {
          "internalType": "string",
          "name": "",
          "type": "string"
        }
      ],
      "stateMutability": "view",
      "type": "function"
    },
    {
      "inputs": [],
      "name": "getListPrice",
      "outputs": [
        {
          "internalType": "uint256",
          "name": "",
          "type": "uint256"
        }
      ],
      "stateMutability": "view",
      "type": "function"
    },
    {
      "inputs": [
        {
          "internalType": "uint256",
          "name": "tokenId",
          "type": "uint256"
        },
        {
          "internalType": "uint256",
          "name": "initialPrice",
          "type": "uint256"
        }
      ],
      "name": "initializeAuction",
      "outputs": [],
      "stateMutability": "payable",
      "type": "function"
    },
    {
      "inputs": [
        {
          "internalType": "address",
          "name": "owner",
          "type": "address"
        },
        {
          "internalType": "address",
          "name": "operator",
          "type": "address"
        }
      ],
      "name": "isApprovedForAll",
      "outputs": [
        {
          "internalType": "bool",
          "name": "",
          "type": "bool"
        }
      ],
      "stateMutability": "view",
      "type": "function"
    },
    {
      "inputs": [],
      "name": "name",
      "outputs": [
        {
          "internalType": "string",
          "name": "",
          "type": "string"
        }
      ],
      "stateMutability": "view",
      "type": "function"
    },
    {
      "inputs": [
        {
          "internalType": "uint256",
          "name": "tokenId",
          "type": "uint256"
        }
      ],
      "name": "ownerOf",
      "outputs": [
        {
          "internalType": "address",
          "name": "",
          "type": "address"
        }
      ],
      "stateMutability": "view",
      "type": "function"
    },
    {
      "inputs": [
        {
          "internalType": "address",
          "name": "from",
          "type": "address"
        },
        {
          "internalType": "address",
          "name": "to",
          "type": "address"
        },
        {
          "internalType": "uint256",
          "name": "tokenId",
          "type": "uint256"
        }
      ],
      "name": "safeTransferFrom",
      "outputs": [],
      "stateMutability": "nonpayable",
      "type": "function"
    },
    {
      "inputs": [
        {
          "internalType": "address",
          "name": "from",
          "type": "address"
        },
        {
          "internalType": "address",
          "name": "to",
          "type": "address"
        },
        {
          "internalType": "uint256",
          "name": "tokenId",
          "type": "uint256"
        },
        {
          "internalType": "bytes",
          "name": "data",
          "type": "bytes"
        }
      ],
      "name": "safeTransferFrom",
      "outputs": [],
      "stateMutability": "nonpayable",
      "type": "function"
    },
    {
      "inputs": [
        {
          "internalType": "address",
          "name": "operator",
          "type": "address"
        },
        {
          "internalType": "bool",
          "name": "approved",
          "type": "bool"
        }
      ],
      "name": "setApprovalForAll",
      "outputs": [],
      "stateMutability": "nonpayable",
      "type": "function"
    },
    {
      "inputs": [
        {
          "internalType": "bytes4",
          "name": "interfaceId",
          "type": "bytes4"
        }
      ],
      "name": "supportsInterface",
      "outputs": [
        {
          "internalType": "bool",
          "name": "",
          "type": "bool"
        }
      ],
      "stateMutability": "view",
      "type": "function"
    },
    {
      "inputs": [],
      "name": "symbol",
      "outputs": [
        {
          "internalType": "string",
          "name": "",
          "type": "string"
        }
      ],
      "stateMutability": "view",
      "type": "function"
    },
    {
      "inputs": [
        {
          "internalType": "uint256",
          "name": "tokenId",
          "type": "uint256"
        }
      ],
      "name": "tokenURI",
      "outputs": [
        {
          "internalType": "string",
          "name": "",
          "type": "string"
        }
      ],
      "stateMutability": "view",
      "type": "function"
    },
    {
      "inputs": [
        {
          "internalType": "address",
          "name": "from",
          "type": "address"
        },
        {
          "internalType": "address",
          "name": "to",
          "type": "address"
        },
        {
          "internalType": "uint256",
          "name": "tokenId",
          "type": "uint256"
        }
      ],
      "name": "transferFrom",
      "outputs": [],
      "stateMutability": "nonpayable",
      "type": "function"
    },
    {
      "inputs": [
        {
          "internalType": "uint256",
          "name": "_listPrice",
          "type": "uint256"
        }
      ],
      "name": "updateListPrice",
      "outputs": [],
      "stateMutability": "payable",
      "type": "function"
    }
  ],
  "bytecode": "0x60806040523480156200001157600080fd5b506040518060400160405280600781526020017f41756374696f6e000000000000000000000000000000000000000000000000008152506040518060400160405280600481526020017f41554354000000000000000000000000000000000000000000000000000000008152508160009080519060200190620000969291906200010e565b508060019080519060200190620000af9291906200010e565b50505033600860006101000a81548173ffffffffffffffffffffffffffffffffffffffff021916908373ffffffffffffffffffffffffffffffffffffffff160217905550600a600981905550655af3107a4000600b8190555062000223565b8280546200011c90620001ed565b90600052602060002090601f0160209004810192826200014057600085556200018c565b82601f106200015b57805160ff19168380011785556200018c565b828001600101855582156200018c579182015b828111156200018b5782518255916020019190600101906200016e565b5b5090506200019b91906200019f565b5090565b5b80821115620001ba576000816000905550600101620001a0565b5090565b7f4e487b7100000000000000000000000000000000000000000000000000000000600052602260045260246000fd5b600060028204905060018216806200020657607f821691505b602082108114156200021d576200021c620001be565b5b50919050565b613c5580620002336000396000f3fe60806040526004361061011f5760003560e01c806370a08231116100a0578063b88d4fde11610064578063b88d4fde146103ea578063c322579c14610413578063c60d0d321461042f578063c87b56dd1461044b578063e985e9c5146104885761011f565b806370a0823114610300578063742f0a901461033d57806378bd79351461035957806395d89b4114610396578063a22cb465146103c15761011f565b80632a15966b116100e75780632a15966b1461021b57806342842e0e14610244578063561892361461026d5780636352211e1461029857806368f1945f146102d55761011f565b806301ffc9a71461012457806306fdde0314610161578063081812fc1461018c578063095ea7b3146101c957806323b872dd146101f2575b600080fd5b34801561013057600080fd5b5061014b600480360381019061014691906127d0565b6104c5565b6040516101589190612818565b60405180910390f35b34801561016d57600080fd5b506101766105a7565b60405161018391906128cc565b60405180910390f35b34801561019857600080fd5b506101b360048036038101906101ae9190612924565b610639565b6040516101c09190612992565b60405180910390f35b3480156101d557600080fd5b506101f060048036038101906101eb91906129d9565b61067f565b005b3480156101fe57600080fd5b5061021960048036038101906102149190612a19565b610797565b005b34801561022757600080fd5b50610242600480360381019061023d9190612ba1565b6107f7565b005b34801561025057600080fd5b5061026b60048036038101906102669190612a19565b6108c2565b005b34801561027957600080fd5b506102826108e2565b60405161028f91906128cc565b60405180910390f35b3480156102a457600080fd5b506102bf60048036038101906102ba9190612924565b6108fb565b6040516102cc9190612992565b60405180910390f35b3480156102e157600080fd5b506102ea610982565b6040516102f79190612c0c565b60405180910390f35b34801561030c57600080fd5b5061032760048036038101906103229190612c27565b61098c565b6040516103349190612c0c565b60405180910390f35b61035760048036038101906103529190612c54565b610a44565b005b34801561036557600080fd5b50610380600480360381019061037b9190612924565b610c5c565b60405161038d9190612d61565b60405180910390f35b3480156103a257600080fd5b506103ab610d6e565b6040516103b891906128cc565b60405180910390f35b3480156103cd57600080fd5b506103e860048036038101906103e39190612da8565b610e00565b005b3480156103f657600080fd5b50610411600480360381019061040c9190612e89565b610e16565b005b61042d60048036038101906104289190612924565b610e78565b005b61044960048036038101906104449190612f0c565b610f12565b005b34801561045757600080fd5b50610472600480360381019061046d9190612924565b6110ea565b60405161047f91906128cc565b60405180910390f35b34801561049457600080fd5b506104af60048036038101906104aa9190612f4c565b6111fd565b6040516104bc9190612818565b60405180910390f35b60007f80ac58cd000000000000000000000000000000000000000000000000000000007bffffffffffffffffffffffffffffffffffffffffffffffffffffffff1916827bffffffffffffffffffffffffffffffffffffffffffffffffffffffff1916148061059057507f5b5e139f000000000000000000000000000000000000000000000000000000007bffffffffffffffffffffffffffffffffffffffffffffffffffffffff1916827bffffffffffffffffffffffffffffffffffffffffffffffffffffffff1916145b806105a0575061059f82611291565b5b9050919050565b6060600080546105b690612fbb565b80601f01602080910402602001604051908101604052809291908181526020018280546105e290612fbb565b801561062f5780601f106106045761010080835404028352916020019161062f565b820191906000526020600020905b81548152906001019060200180831161061257829003601f168201915b5050505050905090565b6000610644826112fb565b6004600083815260200190815260200160002060009054906101000a900473ffffffffffffffffffffffffffffffffffffffff169050919050565b600061068a826108fb565b90508073ffffffffffffffffffffffffffffffffffffffff168373ffffffffffffffffffffffffffffffffffffffff1614156106fb576040517f08c379a00000000000000000000000000000000000000000000000000000000081526004016106f29061305f565b60405180910390fd5b8073ffffffffffffffffffffffffffffffffffffffff1661071a611346565b73ffffffffffffffffffffffffffffffffffffffff161480610749575061074881610743611346565b6111fd565b5b610788576040517f08c379a000000000000000000000000000000000000000000000000000000000815260040161077f906130f1565b60405180910390fd5b610792838361134e565b505050565b6107a86107a2611346565b82611407565b6107e7576040517f08c379a00000000000000000000000000000000000000000000000000000000081526004016107de90613183565b60405180910390fd5b6107f283838361149c565b505050565b3373ffffffffffffffffffffffffffffffffffffffff16600860009054906101000a900473ffffffffffffffffffffffffffffffffffffffff1673ffffffffffffffffffffffffffffffffffffffff1614610887576040517f08c379a000000000000000000000000000000000000000000000000000000000815260040161087e906131ef565b60405180910390fd5b6108916007611796565b600061089d60076117ac565b90506108a933826117ba565b6108b381846117d8565b6108bd818361184c565b505050565b6108dd83838360405180602001604052806000815250610e16565b505050565b60606108f66108f160076117ac565b611990565b905090565b60008061090783611a68565b9050600073ffffffffffffffffffffffffffffffffffffffff168173ffffffffffffffffffffffffffffffffffffffff161415610979576040517f08c379a00000000000000000000000000000000000000000000000000000000081526004016109709061325b565b60405180910390fd5b80915050919050565b6000600b54905090565b60008073ffffffffffffffffffffffffffffffffffffffff168273ffffffffffffffffffffffffffffffffffffffff1614156109fd576040517f08c379a00000000000000000000000000000000000000000000000000000000081526004016109f4906132ed565b60405180910390fd5b600360008373ffffffffffffffffffffffffffffffffffffffff1673ffffffffffffffffffffffffffffffffffffffff168152602001908152602001600020549050919050565b3373ffffffffffffffffffffffffffffffffffffffff16600860009054906101000a900473ffffffffffffffffffffffffffffffffffffffff1673ffffffffffffffffffffffffffffffffffffffff1614610ad4576040517f08c379a0000000000000000000000000000000000000000000000000000000008152600401610acb906131ef565b60405180910390fd5b600a600084815260200190815260200160002060050160009054906101000a900460ff16610b37576040517f08c379a0000000000000000000000000000000000000000000000000000000008152600401610b2e90613359565b60405180910390fd5b600a6000848152602001908152602001600020600301548211610b8f576040517f08c379a0000000000000000000000000000000000000000000000000000000008152600401610b86906133eb565b60405180910390fd5b81600a60008581526020019081526020016000206003018190555080600a600085815260200190815260200160002060020160006101000a81548173ffffffffffffffffffffffffffffffffffffffff021916908373ffffffffffffffffffffffffffffffffffffffff1602179055506001600a60008581526020019081526020016000206004016000828254610c26919061343a565b92505081905550600954600a6000858152602001908152602001600020600401541415610c5757610c5683611aa5565b5b505050565b610c6461265d565b600a60008381526020019081526020016000206040518060c0016040529081600082015481526020016001820160009054906101000a900473ffffffffffffffffffffffffffffffffffffffff1673ffffffffffffffffffffffffffffffffffffffff1673ffffffffffffffffffffffffffffffffffffffff1681526020016002820160009054906101000a900473ffffffffffffffffffffffffffffffffffffffff1673ffffffffffffffffffffffffffffffffffffffff1673ffffffffffffffffffffffffffffffffffffffff16815260200160038201548152602001600482015481526020016005820160009054906101000a900460ff1615151515815250509050919050565b606060018054610d7d90612fbb565b80601f0160208091040260200160405190810160405280929190818152602001828054610da990612fbb565b8015610df65780601f10610dcb57610100808354040283529160200191610df6565b820191906000526020600020905b815481529060010190602001808311610dd957829003601f168201915b5050505050905090565b610e12610e0b611346565b8383611d22565b5050565b610e27610e21611346565b83611407565b610e66576040517f08c379a0000000000000000000000000000000000000000000000000000000008152600401610e5d90613183565b60405180910390fd5b610e7284848484611e8f565b50505050565b3373ffffffffffffffffffffffffffffffffffffffff16600860009054906101000a900473ffffffffffffffffffffffffffffffffffffffff1673ffffffffffffffffffffffffffffffffffffffff1614610f08576040517f08c379a0000000000000000000000000000000000000000000000000000000008152600401610eff90613502565b60405180910390fd5b80600b8190555050565b3373ffffffffffffffffffffffffffffffffffffffff16600860009054906101000a900473ffffffffffffffffffffffffffffffffffffffff1673ffffffffffffffffffffffffffffffffffffffff1614610fa2576040517f08c379a0000000000000000000000000000000000000000000000000000000008152600401610f99906131ef565b60405180910390fd5b600b543414610fe6576040517f08c379a0000000000000000000000000000000000000000000000000000000008152600401610fdd90613594565b60405180910390fd5b60008111611029576040517f08c379a000000000000000000000000000000000000000000000000000000000815260040161102090613600565b60405180910390fd5b80600a6000848152602001908152602001600020600301819055506001600a600084815260200190815260200160002060050160006101000a81548160ff021916908315150217905550817f99b96b6f4fd045a23f0c7e9af6549db91ea9399606e53fce4985c2c5d5beb6e982600a600086815260200190815260200160002060010160009054906101000a900473ffffffffffffffffffffffffffffffffffffffff1660016040516110de9392919061367f565b60405180910390a25050565b60606110f5826112fb565b600060066000848152602001908152602001600020805461111590612fbb565b80601f016020809104026020016040519081016040528092919081815260200182805461114190612fbb565b801561118e5780601f106111635761010080835404028352916020019161118e565b820191906000526020600020905b81548152906001019060200180831161117157829003601f168201915b50505050509050600061119f611eeb565b90506000815114156111b55781925050506111f8565b6000825111156111ea5780826040516020016111d29291906136f2565b604051602081830303815290604052925050506111f8565b6111f384611f02565b925050505b919050565b6000600560008473ffffffffffffffffffffffffffffffffffffffff1673ffffffffffffffffffffffffffffffffffffffff16815260200190815260200160002060008373ffffffffffffffffffffffffffffffffffffffff1673ffffffffffffffffffffffffffffffffffffffff16815260200190815260200160002060009054906101000a900460ff16905092915050565b60007f01ffc9a7000000000000000000000000000000000000000000000000000000007bffffffffffffffffffffffffffffffffffffffffffffffffffffffff1916827bffffffffffffffffffffffffffffffffffffffffffffffffffffffff1916149050919050565b61130481611f6a565b611343576040517f08c379a000000000000000000000000000000000000000000000000000000000815260040161133a9061325b565b60405180910390fd5b50565b600033905090565b816004600083815260200190815260200160002060006101000a81548173ffffffffffffffffffffffffffffffffffffffff021916908373ffffffffffffffffffffffffffffffffffffffff160217905550808273ffffffffffffffffffffffffffffffffffffffff166113c1836108fb565b73ffffffffffffffffffffffffffffffffffffffff167f8c5be1e5ebec7d5bd14f71427d1e84f3dd0314c0f7b2291e5b200ac8c7c3b92560405160405180910390a45050565b600080611413836108fb565b90508073ffffffffffffffffffffffffffffffffffffffff168473ffffffffffffffffffffffffffffffffffffffff161480611455575061145481856111fd565b5b8061149357508373ffffffffffffffffffffffffffffffffffffffff1661147b84610639565b73ffffffffffffffffffffffffffffffffffffffff16145b91505092915050565b8273ffffffffffffffffffffffffffffffffffffffff166114bc826108fb565b73ffffffffffffffffffffffffffffffffffffffff1614611512576040517f08c379a000000000000000000000000000000000000000000000000000000000815260040161150990613788565b60405180910390fd5b600073ffffffffffffffffffffffffffffffffffffffff168273ffffffffffffffffffffffffffffffffffffffff161415611582576040517f08c379a00000000000000000000000000000000000000000000000000000000081526004016115799061381a565b60405180910390fd5b61158f8383836001611fab565b8273ffffffffffffffffffffffffffffffffffffffff166115af826108fb565b73ffffffffffffffffffffffffffffffffffffffff1614611605576040517f08c379a00000000000000000000000000000000000000000000000000000000081526004016115fc90613788565b60405180910390fd5b6004600082815260200190815260200160002060006101000a81549073ffffffffffffffffffffffffffffffffffffffff02191690556001600360008573ffffffffffffffffffffffffffffffffffffffff1673ffffffffffffffffffffffffffffffffffffffff168152602001908152602001600020600082825403925050819055506001600360008473ffffffffffffffffffffffffffffffffffffffff1673ffffffffffffffffffffffffffffffffffffffff16815260200190815260200160002060008282540192505081905550816002600083815260200190815260200160002060006101000a81548173ffffffffffffffffffffffffffffffffffffffff021916908373ffffffffffffffffffffffffffffffffffffffff160217905550808273ffffffffffffffffffffffffffffffffffffffff168473ffffffffffffffffffffffffffffffffffffffff167fddf252ad1be2c89b69c2b068fc378daa952ba7f163c4a11628f55a4df523b3ef60405160405180910390a461179183838360016120d1565b505050565b6001816000016000828254019250508190555050565b600081600001549050919050565b6117d48282604051806020016040528060008152506120d7565b5050565b6117e182611f6a565b611820576040517f08c379a0000000000000000000000000000000000000000000000000000000008152600401611817906138ac565b60405180910390fd5b806006600084815260200190815260200160002090805190602001906118479291906126c1565b505050565b6040518060c001604052808381526020018273ffffffffffffffffffffffffffffffffffffffff1681526020018273ffffffffffffffffffffffffffffffffffffffff168152602001600081526020016000815260200160001515815250600a60008481526020019081526020016000206000820151816000015560208201518160010160006101000a81548173ffffffffffffffffffffffffffffffffffffffff021916908373ffffffffffffffffffffffffffffffffffffffff16021790555060408201518160020160006101000a81548173ffffffffffffffffffffffffffffffffffffffff021916908373ffffffffffffffffffffffffffffffffffffffff160217905550606082015181600301556080820151816004015560a08201518160050160006101000a81548160ff0219169083151502179055509050505050565b60606000600161199f84612132565b01905060008167ffffffffffffffff8111156119be576119bd612a76565b5b6040519080825280601f01601f1916602001820160405280156119f05781602001600182028036833780820191505090505b509050600082602001820190505b600115611a5d578080600190039150507f3031323334353637383961626364656600000000000000000000000000000000600a86061a8153600a8581611a4757611a466138cc565b5b0494506000851415611a5857611a5d565b6119fe565b819350505050919050565b60006002600083815260200190815260200160002060009054906101000a900473ffffffffffffffffffffffffffffffffffffffff169050919050565b611b08600860009054906101000a900473ffffffffffffffffffffffffffffffffffffffff16600a600084815260200190815260200160002060020160009054906101000a900473ffffffffffffffffffffffffffffffffffffffff168361149c565b611b34600860009054906101000a900473ffffffffffffffffffffffffffffffffffffffff168261067f565b600860009054906101000a900473ffffffffffffffffffffffffffffffffffffffff1673ffffffffffffffffffffffffffffffffffffffff166108fc600b549081150290604051600060405180830381858888f19350505050158015611b9e573d6000803e3d6000fd5b50600a600082815260200190815260200160002060010160009054906101000a900473ffffffffffffffffffffffffffffffffffffffff1673ffffffffffffffffffffffffffffffffffffffff166108fc600a6000848152602001908152602001600020600301549081150290604051600060405180830381858888f19350505050158015611c31573d6000803e3d6000fd5b506000600a600083815260200190815260200160002060050160006101000a81548160ff021916908315150217905550807ffa491e148fe93128a73f56621b508cb48fa1bc1480f6a3a9790c00224f23752e600a600084815260200190815260200160002060010160009054906101000a900473ffffffffffffffffffffffffffffffffffffffff16600a600085815260200190815260200160002060020160009054906101000a900473ffffffffffffffffffffffffffffffffffffffff16600a600086815260200190815260200160002060030154604051611d17939291906138fb565b60405180910390a250565b8173ffffffffffffffffffffffffffffffffffffffff168373ffffffffffffffffffffffffffffffffffffffff161415611d91576040517f08c379a0000000000000000000000000000000000000000000000000000000008152600401611d889061397e565b60405180910390fd5b80600560008573ffffffffffffffffffffffffffffffffffffffff1673ffffffffffffffffffffffffffffffffffffffff16815260200190815260200160002060008473ffffffffffffffffffffffffffffffffffffffff1673ffffffffffffffffffffffffffffffffffffffff16815260200190815260200160002060006101000a81548160ff0219169083151502179055508173ffffffffffffffffffffffffffffffffffffffff168373ffffffffffffffffffffffffffffffffffffffff167f17307eab39ab6107e8899845ad3d59bd9653f200f220920489ca2b5937696c3183604051611e829190612818565b60405180910390a3505050565b611e9a84848461149c565b611ea684848484612285565b611ee5576040517f08c379a0000000000000000000000000000000000000000000000000000000008152600401611edc90613a10565b60405180910390fd5b50505050565b606060405180602001604052806000815250905090565b6060611f0d826112fb565b6000611f17611eeb565b90506000815111611f375760405180602001604052806000815250611f62565b80611f4184611990565b604051602001611f529291906136f2565b6040516020818303038152906040525b915050919050565b60008073ffffffffffffffffffffffffffffffffffffffff16611f8c83611a68565b73ffffffffffffffffffffffffffffffffffffffff1614159050919050565b60018111156120cb57600073ffffffffffffffffffffffffffffffffffffffff168473ffffffffffffffffffffffffffffffffffffffff161461203f5780600360008673ffffffffffffffffffffffffffffffffffffffff1673ffffffffffffffffffffffffffffffffffffffff16815260200190815260200160002060008282546120379190613a30565b925050819055505b600073ffffffffffffffffffffffffffffffffffffffff168373ffffffffffffffffffffffffffffffffffffffff16146120ca5780600360008573ffffffffffffffffffffffffffffffffffffffff1673ffffffffffffffffffffffffffffffffffffffff16815260200190815260200160002060008282546120c2919061343a565b925050819055505b5b50505050565b50505050565b6120e1838361241c565b6120ee6000848484612285565b61212d576040517f08c379a000000000000000000000000000000000000000000000000000000000815260040161212490613a10565b60405180910390fd5b505050565b600080600090507a184f03e93ff9f4daa797ed6e38ed64bf6a1f0100000000000000008310612190577a184f03e93ff9f4daa797ed6e38ed64bf6a1f0100000000000000008381612186576121856138cc565b5b0492506040810190505b6d04ee2d6d415b85acef810000000083106121cd576d04ee2d6d415b85acef810000000083816121c3576121c26138cc565b5b0492506020810190505b662386f26fc1000083106121fc57662386f26fc1000083816121f2576121f16138cc565b5b0492506010810190505b6305f5e1008310612225576305f5e100838161221b5761221a6138cc565b5b0492506008810190505b612710831061224a5761271083816122405761223f6138cc565b5b0492506004810190505b6064831061226d5760648381612263576122626138cc565b5b0492506002810190505b600a831061227c576001810190505b80915050919050565b60006122a68473ffffffffffffffffffffffffffffffffffffffff1661263a565b1561240f578373ffffffffffffffffffffffffffffffffffffffff1663150b7a026122cf611346565b8786866040518563ffffffff1660e01b81526004016122f19493929190613ab9565b602060405180830381600087803b15801561230b57600080fd5b505af192505050801561233c57506040513d601f19601f820116820180604052508101906123399190613b1a565b60015b6123bf573d806000811461236c576040519150601f19603f3d011682016040523d82523d6000602084013e612371565b606091505b506000815114156123b7576040517f08c379a00000000000000000000000000000000000000000000000000000000081526004016123ae90613a10565b60405180910390fd5b805181602001fd5b63150b7a0260e01b7bffffffffffffffffffffffffffffffffffffffffffffffffffffffff1916817bffffffffffffffffffffffffffffffffffffffffffffffffffffffff191614915050612414565b600190505b949350505050565b600073ffffffffffffffffffffffffffffffffffffffff168273ffffffffffffffffffffffffffffffffffffffff16141561248c576040517f08c379a000000000000000000000000000000000000000000000000000000000815260040161248390613b93565b60405180910390fd5b61249581611f6a565b156124d5576040517f08c379a00000000000000000000000000000000000000000000000000000000081526004016124cc90613bff565b60405180910390fd5b6124e3600083836001611fab565b6124ec81611f6a565b1561252c576040517f08c379a000000000000000000000000000000000000000000000000000000000815260040161252390613bff565b60405180910390fd5b6001600360008473ffffffffffffffffffffffffffffffffffffffff1673ffffffffffffffffffffffffffffffffffffffff16815260200190815260200160002060008282540192505081905550816002600083815260200190815260200160002060006101000a81548173ffffffffffffffffffffffffffffffffffffffff021916908373ffffffffffffffffffffffffffffffffffffffff160217905550808273ffffffffffffffffffffffffffffffffffffffff16600073ffffffffffffffffffffffffffffffffffffffff167fddf252ad1be2c89b69c2b068fc378daa952ba7f163c4a11628f55a4df523b3ef60405160405180910390a46126366000838360016120d1565b5050565b6000808273ffffffffffffffffffffffffffffffffffffffff163b119050919050565b6040518060c0016040528060008152602001600073ffffffffffffffffffffffffffffffffffffffff168152602001600073ffffffffffffffffffffffffffffffffffffffff16815260200160008152602001600081526020016000151581525090565b8280546126cd90612fbb565b90600052602060002090601f0160209004810192826126ef5760008555612736565b82601f1061270857805160ff1916838001178555612736565b82800160010185558215612736579182015b8281111561273557825182559160200191906001019061271a565b5b5090506127439190612747565b5090565b5b80821115612760576000816000905550600101612748565b5090565b6000604051905090565b600080fd5b600080fd5b60007fffffffff0000000000000000000000000000000000000000000000000000000082169050919050565b6127ad81612778565b81146127b857600080fd5b50565b6000813590506127ca816127a4565b92915050565b6000602082840312156127e6576127e561276e565b5b60006127f4848285016127bb565b91505092915050565b60008115159050919050565b612812816127fd565b82525050565b600060208201905061282d6000830184612809565b92915050565b600081519050919050565b600082825260208201905092915050565b60005b8381101561286d578082015181840152602081019050612852565b8381111561287c576000848401525b50505050565b6000601f19601f8301169050919050565b600061289e82612833565b6128a8818561283e565b93506128b881856020860161284f565b6128c181612882565b840191505092915050565b600060208201905081810360008301526128e68184612893565b905092915050565b6000819050919050565b612901816128ee565b811461290c57600080fd5b50565b60008135905061291e816128f8565b92915050565b60006020828403121561293a5761293961276e565b5b60006129488482850161290f565b91505092915050565b600073ffffffffffffffffffffffffffffffffffffffff82169050919050565b600061297c82612951565b9050919050565b61298c81612971565b82525050565b60006020820190506129a76000830184612983565b92915050565b6129b681612971565b81146129c157600080fd5b50565b6000813590506129d3816129ad565b92915050565b600080604083850312156129f0576129ef61276e565b5b60006129fe858286016129c4565b9250506020612a0f8582860161290f565b9150509250929050565b600080600060608486031215612a3257612a3161276e565b5b6000612a40868287016129c4565b9350506020612a51868287016129c4565b9250506040612a628682870161290f565b9150509250925092565b600080fd5b600080fd5b7f4e487b7100000000000000000000000000000000000000000000000000000000600052604160045260246000fd5b612aae82612882565b810181811067ffffffffffffffff82111715612acd57612acc612a76565b5b80604052505050565b6000612ae0612764565b9050612aec8282612aa5565b919050565b600067ffffffffffffffff821115612b0c57612b0b612a76565b5b612b1582612882565b9050602081019050919050565b82818337600083830152505050565b6000612b44612b3f84612af1565b612ad6565b905082815260208101848484011115612b6057612b5f612a71565b5b612b6b848285612b22565b509392505050565b600082601f830112612b8857612b87612a6c565b5b8135612b98848260208601612b31565b91505092915050565b60008060408385031215612bb857612bb761276e565b5b600083013567ffffffffffffffff811115612bd657612bd5612773565b5b612be285828601612b73565b9250506020612bf3858286016129c4565b9150509250929050565b612c06816128ee565b82525050565b6000602082019050612c216000830184612bfd565b92915050565b600060208284031215612c3d57612c3c61276e565b5b6000612c4b848285016129c4565b91505092915050565b600080600060608486031215612c6d57612c6c61276e565b5b6000612c7b8682870161290f565b9350506020612c8c8682870161290f565b9250506040612c9d868287016129c4565b9150509250925092565b612cb0816128ee565b82525050565b6000612cc182612951565b9050919050565b612cd181612cb6565b82525050565b612ce0816127fd565b82525050565b60c082016000820151612cfc6000850182612ca7565b506020820151612d0f6020850182612cc8565b506040820151612d226040850182612cc8565b506060820151612d356060850182612ca7565b506080820151612d486080850182612ca7565b5060a0820151612d5b60a0850182612cd7565b50505050565b600060c082019050612d766000830184612ce6565b92915050565b612d85816127fd565b8114612d9057600080fd5b50565b600081359050612da281612d7c565b92915050565b60008060408385031215612dbf57612dbe61276e565b5b6000612dcd858286016129c4565b9250506020612dde85828601612d93565b9150509250929050565b600067ffffffffffffffff821115612e0357612e02612a76565b5b612e0c82612882565b9050602081019050919050565b6000612e2c612e2784612de8565b612ad6565b905082815260208101848484011115612e4857612e47612a71565b5b612e53848285612b22565b509392505050565b600082601f830112612e7057612e6f612a6c565b5b8135612e80848260208601612e19565b91505092915050565b60008060008060808587031215612ea357612ea261276e565b5b6000612eb1878288016129c4565b9450506020612ec2878288016129c4565b9350506040612ed38782880161290f565b925050606085013567ffffffffffffffff811115612ef457612ef3612773565b5b612f0087828801612e5b565b91505092959194509250565b60008060408385031215612f2357612f2261276e565b5b6000612f318582860161290f565b9250506020612f428582860161290f565b9150509250929050565b60008060408385031215612f6357612f6261276e565b5b6000612f71858286016129c4565b9250506020612f82858286016129c4565b9150509250929050565b7f4e487b7100000000000000000000000000000000000000000000000000000000600052602260045260246000fd5b60006002820490506001821680612fd357607f821691505b60208210811415612fe757612fe6612f8c565b5b50919050565b7f4552433732313a20617070726f76616c20746f2063757272656e74206f776e6560008201527f7200000000000000000000000000000000000000000000000000000000000000602082015250565b600061304960218361283e565b915061305482612fed565b604082019050919050565b600060208201905081810360008301526130788161303c565b9050919050565b7f4552433732313a20617070726f76652063616c6c6572206973206e6f7420746f60008201527f6b656e206f776e6572206f7220617070726f76656420666f7220616c6c000000602082015250565b60006130db603d8361283e565b91506130e68261307f565b604082019050919050565b6000602082019050818103600083015261310a816130ce565b9050919050565b7f4552433732313a2063616c6c6572206973206e6f7420746f6b656e206f776e6560008201527f72206f7220617070726f76656400000000000000000000000000000000000000602082015250565b600061316d602d8361283e565b915061317882613111565b604082019050919050565b6000602082019050818103600083015261319c81613160565b9050919050565b7f4f6e6c79206f776e65722063616e2063726561746520746f6b656e0000000000600082015250565b60006131d9601b8361283e565b91506131e4826131a3565b602082019050919050565b60006020820190508181036000830152613208816131cc565b9050919050565b7f4552433732313a20696e76616c696420746f6b656e2049440000000000000000600082015250565b600061324560188361283e565b91506132508261320f565b602082019050919050565b6000602082019050818103600083015261327481613238565b9050919050565b7f4552433732313a2061646472657373207a65726f206973206e6f74206120766160008201527f6c6964206f776e65720000000000000000000000000000000000000000000000602082015250565b60006132d760298361283e565b91506132e28261327b565b604082019050919050565b60006020820190508181036000830152613306816132ca565b9050919050565b7f4e6f204c69737465642050726f6475637420666f756e64000000000000000000600082015250565b600061334360178361283e565b915061334e8261330d565b602082019050919050565b6000602082019050818103600083015261337281613336565b9050919050565b7f746865207072696365206d75737420626520686967686572207468616e20746860008201527f65206c6173742042696400000000000000000000000000000000000000000000602082015250565b60006133d5602a8361283e565b91506133e082613379565b604082019050919050565b60006020820190508181036000830152613404816133c8565b9050919050565b7f4e487b7100000000000000000000000000000000000000000000000000000000600052601160045260246000fd5b6000613445826128ee565b9150613450836128ee565b9250827fffffffffffffffffffffffffffffffffffffffffffffffffffffffffffffffff038211156134855761348461340b565b5b828201905092915050565b7f4f6e6c79206f776e65722063616e20757064617465206c697374696e6720707260008201527f6963650000000000000000000000000000000000000000000000000000000000602082015250565b60006134ec60238361283e565b91506134f782613490565b604082019050919050565b6000602082019050818103600083015261351b816134df565b9050919050565b7f416d6f756e7420666f72206c697374696e67207072696365206973206469666660008201527f6572656e74000000000000000000000000000000000000000000000000000000602082015250565b600061357e60258361283e565b915061358982613522565b604082019050919050565b600060208201905081810360008301526135ad81613571565b9050919050565b7f746865207072696365206973206e656761746976650000000000000000000000600082015250565b60006135ea60158361283e565b91506135f5826135b4565b602082019050919050565b60006020820190508181036000830152613619816135dd565b9050919050565b6000819050919050565b600061364561364061363b84612951565b613620565b612951565b9050919050565b60006136578261362a565b9050919050565b60006136698261364c565b9050919050565b6136798161365e565b82525050565b60006060820190506136946000830186612bfd565b6136a16020830185613670565b6136ae6040830184612809565b949350505050565b600081905092915050565b60006136cc82612833565b6136d681856136b6565b93506136e681856020860161284f565b80840191505092915050565b60006136fe82856136c1565b915061370a82846136c1565b91508190509392505050565b7f4552433732313a207472616e736665722066726f6d20696e636f72726563742060008201527f6f776e6572000000000000000000000000000000000000000000000000000000602082015250565b600061377260258361283e565b915061377d82613716565b604082019050919050565b600060208201905081810360008301526137a181613765565b9050919050565b7f4552433732313a207472616e7366657220746f20746865207a65726f2061646460008201527f7265737300000000000000000000000000000000000000000000000000000000602082015250565b600061380460248361283e565b915061380f826137a8565b604082019050919050565b60006020820190508181036000830152613833816137f7565b9050919050565b7f45524337323155524953746f726167653a2055524920736574206f66206e6f6e60008201527f6578697374656e7420746f6b656e000000000000000000000000000000000000602082015250565b6000613896602e8361283e565b91506138a18261383a565b604082019050919050565b600060208201905081810360008301526138c581613889565b9050919050565b7f4e487b7100000000000000000000000000000000000000000000000000000000600052601260045260246000fd5b60006060820190506139106000830186613670565b61391d6020830185613670565b61392a6040830184612bfd565b949350505050565b7f4552433732313a20617070726f766520746f2063616c6c657200000000000000600082015250565b600061396860198361283e565b915061397382613932565b602082019050919050565b600060208201905081810360008301526139978161395b565b9050919050565b7f4552433732313a207472616e7366657220746f206e6f6e20455243373231526560008201527f63656976657220696d706c656d656e7465720000000000000000000000000000602082015250565b60006139fa60328361283e565b9150613a058261399e565b604082019050919050565b60006020820190508181036000830152613a29816139ed565b9050919050565b6000613a3b826128ee565b9150613a46836128ee565b925082821015613a5957613a5861340b565b5b828203905092915050565b600081519050919050565b600082825260208201905092915050565b6000613a8b82613a64565b613a958185613a6f565b9350613aa581856020860161284f565b613aae81612882565b840191505092915050565b6000608082019050613ace6000830187612983565b613adb6020830186612983565b613ae86040830185612bfd565b8181036060830152613afa8184613a80565b905095945050505050565b600081519050613b14816127a4565b92915050565b600060208284031215613b3057613b2f61276e565b5b6000613b3e84828501613b05565b91505092915050565b7f4552433732313a206d696e7420746f20746865207a65726f2061646472657373600082015250565b6000613b7d60208361283e565b9150613b8882613b47565b602082019050919050565b60006020820190508181036000830152613bac81613b70565b9050919050565b7f4552433732313a20746f6b656e20616c7265616479206d696e74656400000000600082015250565b6000613be9601c8361283e565b9150613bf482613bb3565b602082019050919050565b60006020820190508181036000830152613c1881613bdc565b905091905056fea2646970667358221220c40c8c8113e14c6ad8303889fd6317aadad9c4d0061f964469fc31d12419475864736f6c63430008090033",
  "linkReferences": {},
  "deployedLinkReferences": {}
}