{
  "_format": "hh-sol-artifact-1",
  "contractName": "Auction",
  "sourceName": "contracts/Auction.sol",
  "abi": [
    {
      "inputs": [],
      "stateMutability": "nonpayable",
      "type": "constructor"
    },
    {
      "anonymous": false,
      "inputs": [
        {
          "indexed": true,
          "internalType": "address",
          "name": "owner",
          "type": "address"
        },
        {
          "indexed": true,
          "internalType": "address",
          "name": "approved",
          "type": "address"
        },
        {
          "indexed": true,
          "internalType": "uint256",
          "name": "tokenId",
          "type": "uint256"
        }
      ],
      "name": "Approval",
      "type": "event"
    },
    {
      "anonymous": false,
      "inputs": [
        {
          "indexed": true,
          "internalType": "address",
          "name": "owner",
          "type": "address"
        },
        {
          "indexed": true,
          "internalType": "address",
          "name": "operator",
          "type": "address"
        },
        {
          "indexed": false,
          "internalType": "bool",
          "name": "approved",
          "type": "bool"
        }
      ],
      "name": "ApprovalForAll",
      "type": "event"
    },
    {
      "anonymous": false,
      "inputs": [
        {
          "indexed": true,
          "internalType": "uint256",
          "name": "tokenId",
          "type": "uint256"
        },
        {
          "indexed": false,
          "internalType": "address",
          "name": "seller",
          "type": "address"
        },
        {
          "indexed": false,
          "internalType": "address",
          "name": "buyer",
          "type": "address"
        },
        {
          "indexed": false,
          "internalType": "uint256",
          "name": "price",
          "type": "uint256"
        }
      ],
      "name": "AuctionFinished",
      "type": "event"
    },
    {
      "anonymous": false,
      "inputs": [
        {
          "indexed": true,
          "internalType": "uint256",
          "name": "tokenId",
          "type": "uint256"
        },
        {
          "indexed": false,
          "internalType": "uint256",
          "name": "minPrice",
          "type": "uint256"
        },
        {
          "indexed": false,
          "internalType": "address",
          "name": "seller",
          "type": "address"
        },
        {
          "indexed": false,
          "internalType": "bool",
          "name": "currentlyListed",
          "type": "bool"
        }
      ],
      "name": "AuctionInitialized",
      "type": "event"
    },
    {
      "anonymous": false,
      "inputs": [
        {
          "indexed": true,
          "internalType": "address",
          "name": "from",
          "type": "address"
        },
        {
          "indexed": true,
          "internalType": "address",
          "name": "to",
          "type": "address"
        },
        {
          "indexed": true,
          "internalType": "uint256",
          "name": "tokenId",
          "type": "uint256"
        }
      ],
      "name": "Transfer",
      "type": "event"
    },
    {
      "inputs": [
        {
          "internalType": "address",
          "name": "to",
          "type": "address"
        },
        {
          "internalType": "uint256",
          "name": "tokenId",
          "type": "uint256"
        }
      ],
      "name": "approve",
      "outputs": [],
      "stateMutability": "nonpayable",
      "type": "function"
    },
    {
      "inputs": [
        {
          "internalType": "address",
          "name": "owner",
          "type": "address"
        }
      ],
      "name": "balanceOf",
      "outputs": [
        {
          "internalType": "uint256",
          "name": "",
          "type": "uint256"
        }
      ],
      "stateMutability": "view",
      "type": "function"
    },
    {
      "inputs": [
        {
          "internalType": "uint256",
          "name": "tokenId",
          "type": "uint256"
        },
        {
          "internalType": "uint256",
          "name": "bidPrice",
          "type": "uint256"
        },
        {
          "internalType": "address",
          "name": "bidder",
          "type": "address"
        }
      ],
      "name": "bid",
      "outputs": [],
      "stateMutability": "payable",
      "type": "function"
    },
    {
      "inputs": [
        {
          "internalType": "string",
          "name": "tokenURI",
          "type": "string"
        },
        {
          "internalType": "address",
          "name": "seller",
          "type": "address"
        }
      ],
      "name": "createProductToken",
      "outputs": [],
      "stateMutability": "nonpayable",
      "type": "function"
    },
    {
      "inputs": [
        {
          "internalType": "uint256",
          "name": "tokenId",
          "type": "uint256"
        }
      ],
      "name": "executeSale",
      "outputs": [],
      "stateMutability": "payable",
      "type": "function"
    },
    {
      "inputs": [
        {
          "internalType": "uint256",
          "name": "tokenId",
          "type": "uint256"
        }
      ],
      "name": "getApproved",
      "outputs": [
        {
          "internalType": "address",
          "name": "",
          "type": "address"
        }
      ],
      "stateMutability": "view",
      "type": "function"
    },
    {
      "inputs": [
        {
          "internalType": "uint256",
          "name": "tokenId",
          "type": "uint256"
        }
      ],
      "name": "getAuction",
      "outputs": [
        {
          "components": [
            {
              "internalType": "uint256",
              "name": "productTokenId",
              "type": "uint256"
            },
            {
              "internalType": "address payable",
              "name": "seller",
              "type": "address"
            },
            {
              "internalType": "address",
              "name": "lastBidder",
              "type": "address"
            },
            {
              "internalType": "uint256",
              "name": "bestPrice",
              "type": "uint256"
            },
            {
              "internalType": "uint256",
              "name": "bidPosition",
              "type": "uint256"
            },
            {
              "internalType": "bool",
              "name": "currentlyListed",
              "type": "bool"
            }
          ],
          "internalType": "struct Auction.ProductAuction",
          "name": "",
          "type": "tuple"
        }
      ],
      "stateMutability": "view",
      "type": "function"
    },
    {
      "inputs": [],
      "name": "getCurrentTokenId",
      "outputs": [
        {
          "internalType": "string",
          "name": "",
          "type": "string"
        }
      ],
      "stateMutability": "view",
      "type": "function"
    },
    {
      "inputs": [],
      "name": "getListPrice",
      "outputs": [
        {
          "internalType": "uint256",
          "name": "",
          "type": "uint256"
        }
      ],
      "stateMutability": "view",
      "type": "function"
    },
    {
      "inputs": [
        {
          "internalType": "uint256",
          "name": "tokenId",
          "type": "uint256"
        },
        {
          "internalType": "uint256",
          "name": "initialPrice",
          "type": "uint256"
        }
      ],
      "name": "initializeAuction",
      "outputs": [],
      "stateMutability": "payable",
      "type": "function"
    },
    {
      "inputs": [
        {
          "internalType": "address",
          "name": "owner",
          "type": "address"
        },
        {
          "internalType": "address",
          "name": "operator",
          "type": "address"
        }
      ],
      "name": "isApprovedForAll",
      "outputs": [
        {
          "internalType": "bool",
          "name": "",
          "type": "bool"
        }
      ],
      "stateMutability": "view",
      "type": "function"
    },
    {
      "inputs": [],
      "name": "name",
      "outputs": [
        {
          "internalType": "string",
          "name": "",
          "type": "string"
        }
      ],
      "stateMutability": "view",
      "type": "function"
    },
    {
      "inputs": [
        {
          "internalType": "uint256",
          "name": "tokenId",
          "type": "uint256"
        }
      ],
      "name": "ownerOf",
      "outputs": [
        {
          "internalType": "address",
          "name": "",
          "type": "address"
        }
      ],
      "stateMutability": "view",
      "type": "function"
    },
    {
      "inputs": [
        {
          "internalType": "address",
          "name": "from",
          "type": "address"
        },
        {
          "internalType": "address",
          "name": "to",
          "type": "address"
        },
        {
          "internalType": "uint256",
          "name": "tokenId",
          "type": "uint256"
        }
      ],
      "name": "safeTransferFrom",
      "outputs": [],
      "stateMutability": "nonpayable",
      "type": "function"
    },
    {
      "inputs": [
        {
          "internalType": "address",
          "name": "from",
          "type": "address"
        },
        {
          "internalType": "address",
          "name": "to",
          "type": "address"
        },
        {
          "internalType": "uint256",
          "name": "tokenId",
          "type": "uint256"
        },
        {
          "internalType": "bytes",
          "name": "data",
          "type": "bytes"
        }
      ],
      "name": "safeTransferFrom",
      "outputs": [],
      "stateMutability": "nonpayable",
      "type": "function"
    },
    {
      "inputs": [
        {
          "internalType": "address",
          "name": "operator",
          "type": "address"
        },
        {
          "internalType": "bool",
          "name": "approved",
          "type": "bool"
        }
      ],
      "name": "setApprovalForAll",
      "outputs": [],
      "stateMutability": "nonpayable",
      "type": "function"
    },
    {
      "inputs": [
        {
          "internalType": "bytes4",
          "name": "interfaceId",
          "type": "bytes4"
        }
      ],
      "name": "supportsInterface",
      "outputs": [
        {
          "internalType": "bool",
          "name": "",
          "type": "bool"
        }
      ],
      "stateMutability": "view",
      "type": "function"
    },
    {
      "inputs": [],
      "name": "symbol",
      "outputs": [
        {
          "internalType": "string",
          "name": "",
          "type": "string"
        }
      ],
      "stateMutability": "view",
      "type": "function"
    },
    {
      "inputs": [
        {
          "internalType": "uint256",
          "name": "tokenId",
          "type": "uint256"
        }
      ],
      "name": "tokenURI",
      "outputs": [
        {
          "internalType": "string",
          "name": "",
          "type": "string"
        }
      ],
      "stateMutability": "view",
      "type": "function"
    },
    {
      "inputs": [
        {
          "internalType": "address",
          "name": "from",
          "type": "address"
        },
        {
          "internalType": "address",
          "name": "to",
          "type": "address"
        },
        {
          "internalType": "uint256",
          "name": "tokenId",
          "type": "uint256"
        }
      ],
      "name": "transferFrom",
      "outputs": [],
      "stateMutability": "nonpayable",
      "type": "function"
    },
    {
      "inputs": [
        {
          "internalType": "uint256",
          "name": "_listPrice",
          "type": "uint256"
        }
      ],
      "name": "updateListPrice",
      "outputs": [],
      "stateMutability": "payable",
      "type": "function"
    }
  ],
  "bytecode": "0x60806040523480156200001157600080fd5b506040518060400160405280600781526020017f41756374696f6e000000000000000000000000000000000000000000000000008152506040518060400160405280600481526020017f41554354000000000000000000000000000000000000000000000000000000008152508160009080519060200190620000969291906200010e565b508060019080519060200190620000af9291906200010e565b50505033600860006101000a81548173ffffffffffffffffffffffffffffffffffffffff021916908373ffffffffffffffffffffffffffffffffffffffff160217905550600a600981905550655af3107a4000600b8190555062000223565b8280546200011c90620001ed565b90600052602060002090601f0160209004810192826200014057600085556200018c565b82601f106200015b57805160ff19168380011785556200018c565b828001600101855582156200018c579182015b828111156200018b5782518255916020019190600101906200016e565b5b5090506200019b91906200019f565b5090565b5b80821115620001ba576000816000905550600101620001a0565b5090565b7f4e487b7100000000000000000000000000000000000000000000000000000000600052602260045260246000fd5b600060028204905060018216806200020657607f821691505b602082108114156200021d576200021c620001be565b5b50919050565b613df480620002336000396000f3fe60806040526004361061012a5760003560e01c806370a08231116100ab578063a22cb4651161006f578063a22cb465146103e8578063b88d4fde14610411578063c322579c1461043a578063c60d0d3214610456578063c87b56dd14610472578063e985e9c5146104af5761012a565b806370a082311461030b578063742f0a901461034857806378bd79351461036457806395d89b41146103a15780639b1225c4146103cc5761012a565b80632a15966b116100f25780632a15966b1461022657806342842e0e1461024f57806356189236146102785780636352211e146102a357806368f1945f146102e05761012a565b806301ffc9a71461012f57806306fdde031461016c578063081812fc14610197578063095ea7b3146101d457806323b872dd146101fd575b600080fd5b34801561013b57600080fd5b506101566004803603810190610151919061283c565b6104ec565b6040516101639190612884565b60405180910390f35b34801561017857600080fd5b506101816105ce565b60405161018e9190612938565b60405180910390f35b3480156101a357600080fd5b506101be60048036038101906101b99190612990565b610660565b6040516101cb91906129fe565b60405180910390f35b3480156101e057600080fd5b506101fb60048036038101906101f69190612a45565b6106a6565b005b34801561020957600080fd5b50610224600480360381019061021f9190612a85565b6107be565b005b34801561023257600080fd5b5061024d60048036038101906102489190612c0d565b61081e565b005b34801561025b57600080fd5b5061027660048036038101906102719190612a85565b6108f3565b005b34801561028457600080fd5b5061028d610913565b60405161029a9190612938565b60405180910390f35b3480156102af57600080fd5b506102ca60048036038101906102c59190612990565b61092c565b6040516102d791906129fe565b60405180910390f35b3480156102ec57600080fd5b506102f56109b3565b6040516103029190612c78565b60405180910390f35b34801561031757600080fd5b50610332600480360381019061032d9190612c93565b6109bd565b60405161033f9190612c78565b60405180910390f35b610362600480360381019061035d9190612cc0565b610a75565b005b34801561037057600080fd5b5061038b60048036038101906103869190612990565b610c8d565b6040516103989190612ddc565b60405180910390f35b3480156103ad57600080fd5b506103b6610d9f565b6040516103c39190612938565b60405180910390f35b6103e660048036038101906103e19190612990565b610e31565b005b3480156103f457600080fd5b5061040f600480360381019061040a9190612e23565b61107f565b005b34801561041d57600080fd5b5061043860048036038101906104339190612f04565b611095565b005b610454600480360381019061044f9190612990565b6110f7565b005b610470600480360381019061046b9190612f87565b611191565b005b34801561047e57600080fd5b5061049960048036038101906104949190612990565b6113d3565b6040516104a69190612938565b60405180910390f35b3480156104bb57600080fd5b506104d660048036038101906104d19190612fc7565b6114e6565b6040516104e39190612884565b60405180910390f35b60007f80ac58cd000000000000000000000000000000000000000000000000000000007bffffffffffffffffffffffffffffffffffffffffffffffffffffffff1916827bffffffffffffffffffffffffffffffffffffffffffffffffffffffff191614806105b757507f5b5e139f000000000000000000000000000000000000000000000000000000007bffffffffffffffffffffffffffffffffffffffffffffffffffffffff1916827bffffffffffffffffffffffffffffffffffffffffffffffffffffffff1916145b806105c757506105c68261157a565b5b9050919050565b6060600080546105dd90613036565b80601f016020809104026020016040519081016040528092919081815260200182805461060990613036565b80156106565780601f1061062b57610100808354040283529160200191610656565b820191906000526020600020905b81548152906001019060200180831161063957829003601f168201915b5050505050905090565b600061066b826115e4565b6004600083815260200190815260200160002060009054906101000a900473ffffffffffffffffffffffffffffffffffffffff169050919050565b60006106b18261092c565b90508073ffffffffffffffffffffffffffffffffffffffff168373ffffffffffffffffffffffffffffffffffffffff161415610722576040517f08c379a0000000000000000000000000000000000000000000000000000000008152600401610719906130da565b60405180910390fd5b8073ffffffffffffffffffffffffffffffffffffffff1661074161162f565b73ffffffffffffffffffffffffffffffffffffffff161480610770575061076f8161076a61162f565b6114e6565b5b6107af576040517f08c379a00000000000000000000000000000000000000000000000000000000081526004016107a69061316c565b60405180910390fd5b6107b98383611637565b505050565b6107cf6107c961162f565b826116f0565b61080e576040517f08c379a0000000000000000000000000000000000000000000000000000000008152600401610805906131fe565b60405180910390fd5b610819838383611785565b505050565b3373ffffffffffffffffffffffffffffffffffffffff16600860009054906101000a900473ffffffffffffffffffffffffffffffffffffffff1673ffffffffffffffffffffffffffffffffffffffff16146108ae576040517f08c379a00000000000000000000000000000000000000000000000000000000081526004016108a59061326a565b60405180910390fd5b6108b86007611a7f565b60006108c46007611a95565b90506108d03382611aa3565b6108da8184611ac1565b6108e43082611637565b6108ee8183611b35565b505050565b61090e83838360405180602001604052806000815250611095565b505050565b60606109276109226007611a95565b611c79565b905090565b60008061093883611d51565b9050600073ffffffffffffffffffffffffffffffffffffffff168173ffffffffffffffffffffffffffffffffffffffff1614156109aa576040517f08c379a00000000000000000000000000000000000000000000000000000000081526004016109a1906132d6565b60405180910390fd5b80915050919050565b6000600b54905090565b60008073ffffffffffffffffffffffffffffffffffffffff168273ffffffffffffffffffffffffffffffffffffffff161415610a2e576040517f08c379a0000000000000000000000000000000000000000000000000000000008152600401610a2590613368565b60405180910390fd5b600360008373ffffffffffffffffffffffffffffffffffffffff1673ffffffffffffffffffffffffffffffffffffffff168152602001908152602001600020549050919050565b3373ffffffffffffffffffffffffffffffffffffffff16600860009054906101000a900473ffffffffffffffffffffffffffffffffffffffff1673ffffffffffffffffffffffffffffffffffffffff1614610b05576040517f08c379a0000000000000000000000000000000000000000000000000000000008152600401610afc906133fa565b60405180910390fd5b600a600084815260200190815260200160002060050160009054906101000a900460ff16610b68576040517f08c379a0000000000000000000000000000000000000000000000000000000008152600401610b5f90613466565b60405180910390fd5b600a6000848152602001908152602001600020600301548211610bc0576040517f08c379a0000000000000000000000000000000000000000000000000000000008152600401610bb7906134f8565b60405180910390fd5b81600a60008581526020019081526020016000206003018190555080600a600085815260200190815260200160002060020160006101000a81548173ffffffffffffffffffffffffffffffffffffffff021916908373ffffffffffffffffffffffffffffffffffffffff1602179055506001600a60008581526020019081526020016000206004016000828254610c579190613547565b92505081905550600954600a6000858152602001908152602001600020600401541415610c8857610c8783610e31565b5b505050565b610c956126c9565b600a60008381526020019081526020016000206040518060c0016040529081600082015481526020016001820160009054906101000a900473ffffffffffffffffffffffffffffffffffffffff1673ffffffffffffffffffffffffffffffffffffffff1673ffffffffffffffffffffffffffffffffffffffff1681526020016002820160009054906101000a900473ffffffffffffffffffffffffffffffffffffffff1673ffffffffffffffffffffffffffffffffffffffff1673ffffffffffffffffffffffffffffffffffffffff16815260200160038201548152602001600482015481526020016005820160009054906101000a900460ff1615151515815250509050919050565b606060018054610dae90613036565b80601f0160208091040260200160405190810160405280929190818152602001828054610dda90613036565b8015610e275780601f10610dfc57610100808354040283529160200191610e27565b820191906000526020600020905b815481529060010190602001808311610e0a57829003601f168201915b5050505050905090565b3373ffffffffffffffffffffffffffffffffffffffff16600860009054906101000a900473ffffffffffffffffffffffffffffffffffffffff1673ffffffffffffffffffffffffffffffffffffffff1614610ec1576040517f08c379a0000000000000000000000000000000000000000000000000000000008152600401610eb89061326a565b60405180910390fd5b610f24600860009054906101000a900473ffffffffffffffffffffffffffffffffffffffff16600a600084815260200190815260200160002060020160009054906101000a900473ffffffffffffffffffffffffffffffffffffffff1683611785565b600860009054906101000a900473ffffffffffffffffffffffffffffffffffffffff1673ffffffffffffffffffffffffffffffffffffffff166108fc600b549081150290604051600060405180830381858888f19350505050158015610f8e573d6000803e3d6000fd5b506000600a600083815260200190815260200160002060050160006101000a81548160ff021916908315150217905550807ffa491e148fe93128a73f56621b508cb48fa1bc1480f6a3a9790c00224f23752e600a600084815260200190815260200160002060010160009054906101000a900473ffffffffffffffffffffffffffffffffffffffff16600a600085815260200190815260200160002060020160009054906101000a900473ffffffffffffffffffffffffffffffffffffffff16600a600086815260200190815260200160002060030154604051611074939291906135fc565b60405180910390a250565b61109161108a61162f565b8383611d8e565b5050565b6110a66110a061162f565b836116f0565b6110e5576040517f08c379a00000000000000000000000000000000000000000000000000000000081526004016110dc906131fe565b60405180910390fd5b6110f184848484611efb565b50505050565b3373ffffffffffffffffffffffffffffffffffffffff16600860009054906101000a900473ffffffffffffffffffffffffffffffffffffffff1673ffffffffffffffffffffffffffffffffffffffff1614611187576040517f08c379a000000000000000000000000000000000000000000000000000000000815260040161117e906136a5565b60405180910390fd5b80600b8190555050565b3373ffffffffffffffffffffffffffffffffffffffff16600860009054906101000a900473ffffffffffffffffffffffffffffffffffffffff1673ffffffffffffffffffffffffffffffffffffffff1614611221576040517f08c379a00000000000000000000000000000000000000000000000000000000081526004016112189061326a565b60405180910390fd5b600b543414611265576040517f08c379a000000000000000000000000000000000000000000000000000000000815260040161125c90613737565b60405180910390fd5b60001515600a600084815260200190815260200160002060050160009054906101000a900460ff161515146112cf576040517f08c379a00000000000000000000000000000000000000000000000000000000081526004016112c6906137c9565b60405180910390fd5b60008111611312576040517f08c379a000000000000000000000000000000000000000000000000000000000815260040161130990613835565b60405180910390fd5b80600a6000848152602001908152602001600020600301819055506001600a600084815260200190815260200160002060050160006101000a81548160ff021916908315150217905550817f99b96b6f4fd045a23f0c7e9af6549db91ea9399606e53fce4985c2c5d5beb6e982600a600086815260200190815260200160002060010160009054906101000a900473ffffffffffffffffffffffffffffffffffffffff1660016040516113c793929190613855565b60405180910390a25050565b60606113de826115e4565b60006006600084815260200190815260200160002080546113fe90613036565b80601f016020809104026020016040519081016040528092919081815260200182805461142a90613036565b80156114775780601f1061144c57610100808354040283529160200191611477565b820191906000526020600020905b81548152906001019060200180831161145a57829003601f168201915b505050505090506000611488611f57565b905060008151141561149e5781925050506114e1565b6000825111156114d35780826040516020016114bb9291906138c8565b604051602081830303815290604052925050506114e1565b6114dc84611f6e565b925050505b919050565b6000600560008473ffffffffffffffffffffffffffffffffffffffff1673ffffffffffffffffffffffffffffffffffffffff16815260200190815260200160002060008373ffffffffffffffffffffffffffffffffffffffff1673ffffffffffffffffffffffffffffffffffffffff16815260200190815260200160002060009054906101000a900460ff16905092915050565b60007f01ffc9a7000000000000000000000000000000000000000000000000000000007bffffffffffffffffffffffffffffffffffffffffffffffffffffffff1916827bffffffffffffffffffffffffffffffffffffffffffffffffffffffff1916149050919050565b6115ed81611fd6565b61162c576040517f08c379a0000000000000000000000000000000000000000000000000000000008152600401611623906132d6565b60405180910390fd5b50565b600033905090565b816004600083815260200190815260200160002060006101000a81548173ffffffffffffffffffffffffffffffffffffffff021916908373ffffffffffffffffffffffffffffffffffffffff160217905550808273ffffffffffffffffffffffffffffffffffffffff166116aa8361092c565b73ffffffffffffffffffffffffffffffffffffffff167f8c5be1e5ebec7d5bd14f71427d1e84f3dd0314c0f7b2291e5b200ac8c7c3b92560405160405180910390a45050565b6000806116fc8361092c565b90508073ffffffffffffffffffffffffffffffffffffffff168473ffffffffffffffffffffffffffffffffffffffff16148061173e575061173d81856114e6565b5b8061177c57508373ffffffffffffffffffffffffffffffffffffffff1661176484610660565b73ffffffffffffffffffffffffffffffffffffffff16145b91505092915050565b8273ffffffffffffffffffffffffffffffffffffffff166117a58261092c565b73ffffffffffffffffffffffffffffffffffffffff16146117fb576040517f08c379a00000000000000000000000000000000000000000000000000000000081526004016117f29061395e565b60405180910390fd5b600073ffffffffffffffffffffffffffffffffffffffff168273ffffffffffffffffffffffffffffffffffffffff16141561186b576040517f08c379a0000000000000000000000000000000000000000000000000000000008152600401611862906139f0565b60405180910390fd5b6118788383836001612017565b8273ffffffffffffffffffffffffffffffffffffffff166118988261092c565b73ffffffffffffffffffffffffffffffffffffffff16146118ee576040517f08c379a00000000000000000000000000000000000000000000000000000000081526004016118e59061395e565b60405180910390fd5b6004600082815260200190815260200160002060006101000a81549073ffffffffffffffffffffffffffffffffffffffff02191690556001600360008573ffffffffffffffffffffffffffffffffffffffff1673ffffffffffffffffffffffffffffffffffffffff168152602001908152602001600020600082825403925050819055506001600360008473ffffffffffffffffffffffffffffffffffffffff1673ffffffffffffffffffffffffffffffffffffffff16815260200190815260200160002060008282540192505081905550816002600083815260200190815260200160002060006101000a81548173ffffffffffffffffffffffffffffffffffffffff021916908373ffffffffffffffffffffffffffffffffffffffff160217905550808273ffffffffffffffffffffffffffffffffffffffff168473ffffffffffffffffffffffffffffffffffffffff167fddf252ad1be2c89b69c2b068fc378daa952ba7f163c4a11628f55a4df523b3ef60405160405180910390a4611a7a838383600161213d565b505050565b6001816000016000828254019250508190555050565b600081600001549050919050565b611abd828260405180602001604052806000815250612143565b5050565b611aca82611fd6565b611b09576040517f08c379a0000000000000000000000000000000000000000000000000000000008152600401611b0090613a82565b60405180910390fd5b80600660008481526020019081526020016000209080519060200190611b3092919061272d565b505050565b6040518060c001604052808381526020018273ffffffffffffffffffffffffffffffffffffffff1681526020018273ffffffffffffffffffffffffffffffffffffffff168152602001600081526020016000815260200160001515815250600a60008481526020019081526020016000206000820151816000015560208201518160010160006101000a81548173ffffffffffffffffffffffffffffffffffffffff021916908373ffffffffffffffffffffffffffffffffffffffff16021790555060408201518160020160006101000a81548173ffffffffffffffffffffffffffffffffffffffff021916908373ffffffffffffffffffffffffffffffffffffffff160217905550606082015181600301556080820151816004015560a08201518160050160006101000a81548160ff0219169083151502179055509050505050565b606060006001611c888461219e565b01905060008167ffffffffffffffff811115611ca757611ca6612ae2565b5b6040519080825280601f01601f191660200182016040528015611cd95781602001600182028036833780820191505090505b509050600082602001820190505b600115611d46578080600190039150507f3031323334353637383961626364656600000000000000000000000000000000600a86061a8153600a8581611d3057611d2f613aa2565b5b0494506000851415611d4157611d46565b611ce7565b819350505050919050565b60006002600083815260200190815260200160002060009054906101000a900473ffffffffffffffffffffffffffffffffffffffff169050919050565b8173ffffffffffffffffffffffffffffffffffffffff168373ffffffffffffffffffffffffffffffffffffffff161415611dfd576040517f08c379a0000000000000000000000000000000000000000000000000000000008152600401611df490613b1d565b60405180910390fd5b80600560008573ffffffffffffffffffffffffffffffffffffffff1673ffffffffffffffffffffffffffffffffffffffff16815260200190815260200160002060008473ffffffffffffffffffffffffffffffffffffffff1673ffffffffffffffffffffffffffffffffffffffff16815260200190815260200160002060006101000a81548160ff0219169083151502179055508173ffffffffffffffffffffffffffffffffffffffff168373ffffffffffffffffffffffffffffffffffffffff167f17307eab39ab6107e8899845ad3d59bd9653f200f220920489ca2b5937696c3183604051611eee9190612884565b60405180910390a3505050565b611f06848484611785565b611f12848484846122f1565b611f51576040517f08c379a0000000000000000000000000000000000000000000000000000000008152600401611f4890613baf565b60405180910390fd5b50505050565b606060405180602001604052806000815250905090565b6060611f79826115e4565b6000611f83611f57565b90506000815111611fa35760405180602001604052806000815250611fce565b80611fad84611c79565b604051602001611fbe9291906138c8565b6040516020818303038152906040525b915050919050565b60008073ffffffffffffffffffffffffffffffffffffffff16611ff883611d51565b73ffffffffffffffffffffffffffffffffffffffff1614159050919050565b600181111561213757600073ffffffffffffffffffffffffffffffffffffffff168473ffffffffffffffffffffffffffffffffffffffff16146120ab5780600360008673ffffffffffffffffffffffffffffffffffffffff1673ffffffffffffffffffffffffffffffffffffffff16815260200190815260200160002060008282546120a39190613bcf565b925050819055505b600073ffffffffffffffffffffffffffffffffffffffff168373ffffffffffffffffffffffffffffffffffffffff16146121365780600360008573ffffffffffffffffffffffffffffffffffffffff1673ffffffffffffffffffffffffffffffffffffffff168152602001908152602001600020600082825461212e9190613547565b925050819055505b5b50505050565b50505050565b61214d8383612488565b61215a60008484846122f1565b612199576040517f08c379a000000000000000000000000000000000000000000000000000000000815260040161219090613baf565b60405180910390fd5b505050565b600080600090507a184f03e93ff9f4daa797ed6e38ed64bf6a1f01000000000000000083106121fc577a184f03e93ff9f4daa797ed6e38ed64bf6a1f01000000000000000083816121f2576121f1613aa2565b5b0492506040810190505b6d04ee2d6d415b85acef81000000008310612239576d04ee2d6d415b85acef8100000000838161222f5761222e613aa2565b5b0492506020810190505b662386f26fc10000831061226857662386f26fc10000838161225e5761225d613aa2565b5b0492506010810190505b6305f5e1008310612291576305f5e100838161228757612286613aa2565b5b0492506008810190505b61271083106122b65761271083816122ac576122ab613aa2565b5b0492506004810190505b606483106122d957606483816122cf576122ce613aa2565b5b0492506002810190505b600a83106122e8576001810190505b80915050919050565b60006123128473ffffffffffffffffffffffffffffffffffffffff166126a6565b1561247b578373ffffffffffffffffffffffffffffffffffffffff1663150b7a0261233b61162f565b8786866040518563ffffffff1660e01b815260040161235d9493929190613c58565b602060405180830381600087803b15801561237757600080fd5b505af19250505080156123a857506040513d601f19601f820116820180604052508101906123a59190613cb9565b60015b61242b573d80600081146123d8576040519150601f19603f3d011682016040523d82523d6000602084013e6123dd565b606091505b50600081511415612423576040517f08c379a000000000000000000000000000000000000000000000000000000000815260040161241a90613baf565b60405180910390fd5b805181602001fd5b63150b7a0260e01b7bffffffffffffffffffffffffffffffffffffffffffffffffffffffff1916817bffffffffffffffffffffffffffffffffffffffffffffffffffffffff191614915050612480565b600190505b949350505050565b600073ffffffffffffffffffffffffffffffffffffffff168273ffffffffffffffffffffffffffffffffffffffff1614156124f8576040517f08c379a00000000000000000000000000000000000000000000000000000000081526004016124ef90613d32565b60405180910390fd5b61250181611fd6565b15612541576040517f08c379a000000000000000000000000000000000000000000000000000000000815260040161253890613d9e565b60405180910390fd5b61254f600083836001612017565b61255881611fd6565b15612598576040517f08c379a000000000000000000000000000000000000000000000000000000000815260040161258f90613d9e565b60405180910390fd5b6001600360008473ffffffffffffffffffffffffffffffffffffffff1673ffffffffffffffffffffffffffffffffffffffff16815260200190815260200160002060008282540192505081905550816002600083815260200190815260200160002060006101000a81548173ffffffffffffffffffffffffffffffffffffffff021916908373ffffffffffffffffffffffffffffffffffffffff160217905550808273ffffffffffffffffffffffffffffffffffffffff16600073ffffffffffffffffffffffffffffffffffffffff167fddf252ad1be2c89b69c2b068fc378daa952ba7f163c4a11628f55a4df523b3ef60405160405180910390a46126a260008383600161213d565b5050565b6000808273ffffffffffffffffffffffffffffffffffffffff163b119050919050565b6040518060c0016040528060008152602001600073ffffffffffffffffffffffffffffffffffffffff168152602001600073ffffffffffffffffffffffffffffffffffffffff16815260200160008152602001600081526020016000151581525090565b82805461273990613036565b90600052602060002090601f01602090048101928261275b57600085556127a2565b82601f1061277457805160ff19168380011785556127a2565b828001600101855582156127a2579182015b828111156127a1578251825591602001919060010190612786565b5b5090506127af91906127b3565b5090565b5b808211156127cc5760008160009055506001016127b4565b5090565b6000604051905090565b600080fd5b600080fd5b60007fffffffff0000000000000000000000000000000000000000000000000000000082169050919050565b612819816127e4565b811461282457600080fd5b50565b60008135905061283681612810565b92915050565b600060208284031215612852576128516127da565b5b600061286084828501612827565b91505092915050565b60008115159050919050565b61287e81612869565b82525050565b60006020820190506128996000830184612875565b92915050565b600081519050919050565b600082825260208201905092915050565b60005b838110156128d95780820151818401526020810190506128be565b838111156128e8576000848401525b50505050565b6000601f19601f8301169050919050565b600061290a8261289f565b61291481856128aa565b93506129248185602086016128bb565b61292d816128ee565b840191505092915050565b6000602082019050818103600083015261295281846128ff565b905092915050565b6000819050919050565b61296d8161295a565b811461297857600080fd5b50565b60008135905061298a81612964565b92915050565b6000602082840312156129a6576129a56127da565b5b60006129b48482850161297b565b91505092915050565b600073ffffffffffffffffffffffffffffffffffffffff82169050919050565b60006129e8826129bd565b9050919050565b6129f8816129dd565b82525050565b6000602082019050612a1360008301846129ef565b92915050565b612a22816129dd565b8114612a2d57600080fd5b50565b600081359050612a3f81612a19565b92915050565b60008060408385031215612a5c57612a5b6127da565b5b6000612a6a85828601612a30565b9250506020612a7b8582860161297b565b9150509250929050565b600080600060608486031215612a9e57612a9d6127da565b5b6000612aac86828701612a30565b9350506020612abd86828701612a30565b9250506040612ace8682870161297b565b9150509250925092565b600080fd5b600080fd5b7f4e487b7100000000000000000000000000000000000000000000000000000000600052604160045260246000fd5b612b1a826128ee565b810181811067ffffffffffffffff82111715612b3957612b38612ae2565b5b80604052505050565b6000612b4c6127d0565b9050612b588282612b11565b919050565b600067ffffffffffffffff821115612b7857612b77612ae2565b5b612b81826128ee565b9050602081019050919050565b82818337600083830152505050565b6000612bb0612bab84612b5d565b612b42565b905082815260208101848484011115612bcc57612bcb612add565b5b612bd7848285612b8e565b509392505050565b600082601f830112612bf457612bf3612ad8565b5b8135612c04848260208601612b9d565b91505092915050565b60008060408385031215612c2457612c236127da565b5b600083013567ffffffffffffffff811115612c4257612c416127df565b5b612c4e85828601612bdf565b9250506020612c5f85828601612a30565b9150509250929050565b612c728161295a565b82525050565b6000602082019050612c8d6000830184612c69565b92915050565b600060208284031215612ca957612ca86127da565b5b6000612cb784828501612a30565b91505092915050565b600080600060608486031215612cd957612cd86127da565b5b6000612ce78682870161297b565b9350506020612cf88682870161297b565b9250506040612d0986828701612a30565b9150509250925092565b612d1c8161295a565b82525050565b6000612d2d826129bd565b9050919050565b612d3d81612d22565b82525050565b612d4c816129dd565b82525050565b612d5b81612869565b82525050565b60c082016000820151612d776000850182612d13565b506020820151612d8a6020850182612d34565b506040820151612d9d6040850182612d43565b506060820151612db06060850182612d13565b506080820151612dc36080850182612d13565b5060a0820151612dd660a0850182612d52565b50505050565b600060c082019050612df16000830184612d61565b92915050565b612e0081612869565b8114612e0b57600080fd5b50565b600081359050612e1d81612df7565b92915050565b60008060408385031215612e3a57612e396127da565b5b6000612e4885828601612a30565b9250506020612e5985828601612e0e565b9150509250929050565b600067ffffffffffffffff821115612e7e57612e7d612ae2565b5b612e87826128ee565b9050602081019050919050565b6000612ea7612ea284612e63565b612b42565b905082815260208101848484011115612ec357612ec2612add565b5b612ece848285612b8e565b509392505050565b600082601f830112612eeb57612eea612ad8565b5b8135612efb848260208601612e94565b91505092915050565b60008060008060808587031215612f1e57612f1d6127da565b5b6000612f2c87828801612a30565b9450506020612f3d87828801612a30565b9350506040612f4e8782880161297b565b925050606085013567ffffffffffffffff811115612f6f57612f6e6127df565b5b612f7b87828801612ed6565b91505092959194509250565b60008060408385031215612f9e57612f9d6127da565b5b6000612fac8582860161297b565b9250506020612fbd8582860161297b565b9150509250929050565b60008060408385031215612fde57612fdd6127da565b5b6000612fec85828601612a30565b9250506020612ffd85828601612a30565b9150509250929050565b7f4e487b7100000000000000000000000000000000000000000000000000000000600052602260045260246000fd5b6000600282049050600182168061304e57607f821691505b6020821081141561306257613061613007565b5b50919050565b7f4552433732313a20617070726f76616c20746f2063757272656e74206f776e6560008201527f7200000000000000000000000000000000000000000000000000000000000000602082015250565b60006130c46021836128aa565b91506130cf82613068565b604082019050919050565b600060208201905081810360008301526130f3816130b7565b9050919050565b7f4552433732313a20617070726f76652063616c6c6572206973206e6f7420746f60008201527f6b656e206f776e6572206f7220617070726f76656420666f7220616c6c000000602082015250565b6000613156603d836128aa565b9150613161826130fa565b604082019050919050565b6000602082019050818103600083015261318581613149565b9050919050565b7f4552433732313a2063616c6c6572206973206e6f7420746f6b656e206f776e6560008201527f72206f7220617070726f76656400000000000000000000000000000000000000602082015250565b60006131e8602d836128aa565b91506131f38261318c565b604082019050919050565b60006020820190508181036000830152613217816131db565b9050919050565b7f4f6e6c79206f776e65722063616e2063726561746520746f6b656e0000000000600082015250565b6000613254601b836128aa565b915061325f8261321e565b602082019050919050565b6000602082019050818103600083015261328381613247565b9050919050565b7f4552433732313a20696e76616c696420746f6b656e2049440000000000000000600082015250565b60006132c06018836128aa565b91506132cb8261328a565b602082019050919050565b600060208201905081810360008301526132ef816132b3565b9050919050565b7f4552433732313a2061646472657373207a65726f206973206e6f74206120766160008201527f6c6964206f776e65720000000000000000000000000000000000000000000000602082015250565b60006133526029836128aa565b915061335d826132f6565b604082019050919050565b6000602082019050818103600083015261338181613345565b9050919050565b7f4f6e6c79206f776e65722063616e206163636573732074686973206d6574686f60008201527f6400000000000000000000000000000000000000000000000000000000000000602082015250565b60006133e46021836128aa565b91506133ef82613388565b604082019050919050565b60006020820190508181036000830152613413816133d7565b9050919050565b7f4e6f204c69737465642050726f6475637420666f756e64000000000000000000600082015250565b60006134506017836128aa565b915061345b8261341a565b602082019050919050565b6000602082019050818103600083015261347f81613443565b9050919050565b7f746865207072696365206d75737420626520686967686572207468616e20746860008201527f65206c6173742042696400000000000000000000000000000000000000000000602082015250565b60006134e2602a836128aa565b91506134ed82613486565b604082019050919050565b60006020820190508181036000830152613511816134d5565b9050919050565b7f4e487b7100000000000000000000000000000000000000000000000000000000600052601160045260246000fd5b60006135528261295a565b915061355d8361295a565b9250827fffffffffffffffffffffffffffffffffffffffffffffffffffffffffffffffff0382111561359257613591613518565b5b828201905092915050565b6000819050919050565b60006135c26135bd6135b8846129bd565b61359d565b6129bd565b9050919050565b60006135d4826135a7565b9050919050565b60006135e6826135c9565b9050919050565b6135f6816135db565b82525050565b600060608201905061361160008301866135ed565b61361e60208301856129ef565b61362b6040830184612c69565b949350505050565b7f4f6e6c79206f776e65722063616e20757064617465206c697374696e6720707260008201527f6963650000000000000000000000000000000000000000000000000000000000602082015250565b600061368f6023836128aa565b915061369a82613633565b604082019050919050565b600060208201905081810360008301526136be81613682565b9050919050565b7f416d6f756e7420666f72206c697374696e67207072696365206973206469666660008201527f6572656e74000000000000000000000000000000000000000000000000000000602082015250565b60006137216025836128aa565b915061372c826136c5565b604082019050919050565b6000602082019050818103600083015261375081613714565b9050919050565b7f546869732061756374696f6e2068617320616c7265616479206265656e20737460008201527f6172746564000000000000000000000000000000000000000000000000000000602082015250565b60006137b36025836128aa565b91506137be82613757565b604082019050919050565b600060208201905081810360008301526137e2816137a6565b9050919050565b7f746865207072696365206973206e656761746976650000000000000000000000600082015250565b600061381f6015836128aa565b915061382a826137e9565b602082019050919050565b6000602082019050818103600083015261384e81613812565b9050919050565b600060608201905061386a6000830186612c69565b61387760208301856135ed565b6138846040830184612875565b949350505050565b600081905092915050565b60006138a28261289f565b6138ac818561388c565b93506138bc8185602086016128bb565b80840191505092915050565b60006138d48285613897565b91506138e08284613897565b91508190509392505050565b7f4552433732313a207472616e736665722066726f6d20696e636f72726563742060008201527f6f776e6572000000000000000000000000000000000000000000000000000000602082015250565b60006139486025836128aa565b9150613953826138ec565b604082019050919050565b600060208201905081810360008301526139778161393b565b9050919050565b7f4552433732313a207472616e7366657220746f20746865207a65726f2061646460008201527f7265737300000000000000000000000000000000000000000000000000000000602082015250565b60006139da6024836128aa565b91506139e58261397e565b604082019050919050565b60006020820190508181036000830152613a09816139cd565b9050919050565b7f45524337323155524953746f726167653a2055524920736574206f66206e6f6e60008201527f6578697374656e7420746f6b656e000000000000000000000000000000000000602082015250565b6000613a6c602e836128aa565b9150613a7782613a10565b604082019050919050565b60006020820190508181036000830152613a9b81613a5f565b9050919050565b7f4e487b7100000000000000000000000000000000000000000000000000000000600052601260045260246000fd5b7f4552433732313a20617070726f766520746f2063616c6c657200000000000000600082015250565b6000613b076019836128aa565b9150613b1282613ad1565b602082019050919050565b60006020820190508181036000830152613b3681613afa565b9050919050565b7f4552433732313a207472616e7366657220746f206e6f6e20455243373231526560008201527f63656976657220696d706c656d656e7465720000000000000000000000000000602082015250565b6000613b996032836128aa565b9150613ba482613b3d565b604082019050919050565b60006020820190508181036000830152613bc881613b8c565b9050919050565b6000613bda8261295a565b9150613be58361295a565b925082821015613bf857613bf7613518565b5b828203905092915050565b600081519050919050565b600082825260208201905092915050565b6000613c2a82613c03565b613c348185613c0e565b9350613c448185602086016128bb565b613c4d816128ee565b840191505092915050565b6000608082019050613c6d60008301876129ef565b613c7a60208301866129ef565b613c876040830185612c69565b8181036060830152613c998184613c1f565b905095945050505050565b600081519050613cb381612810565b92915050565b600060208284031215613ccf57613cce6127da565b5b6000613cdd84828501613ca4565b91505092915050565b7f4552433732313a206d696e7420746f20746865207a65726f2061646472657373600082015250565b6000613d1c6020836128aa565b9150613d2782613ce6565b602082019050919050565b60006020820190508181036000830152613d4b81613d0f565b9050919050565b7f4552433732313a20746f6b656e20616c7265616479206d696e74656400000000600082015250565b6000613d88601c836128aa565b9150613d9382613d52565b602082019050919050565b60006020820190508181036000830152613db781613d7b565b905091905056fea2646970667358221220228d63c96c0c976e535fbe234d84a9d5c61a34823adef694cb40e4c350438b6f64736f6c63430008090033",
  "linkReferences": {},
  "deployedLinkReferences": {}
}