{
  "_format": "hh-sol-artifact-1",
  "contractName": "Auction",
  "sourceName": "contracts/Auction.sol",
  "abi": [
    {
      "inputs": [],
      "stateMutability": "nonpayable",
      "type": "constructor"
    },
    {
      "anonymous": false,
      "inputs": [
        {
          "indexed": true,
          "internalType": "address",
          "name": "owner",
          "type": "address"
        },
        {
          "indexed": true,
          "internalType": "address",
          "name": "approved",
          "type": "address"
        },
        {
          "indexed": true,
          "internalType": "uint256",
          "name": "tokenId",
          "type": "uint256"
        }
      ],
      "name": "Approval",
      "type": "event"
    },
    {
      "anonymous": false,
      "inputs": [
        {
          "indexed": true,
          "internalType": "address",
          "name": "owner",
          "type": "address"
        },
        {
          "indexed": true,
          "internalType": "address",
          "name": "operator",
          "type": "address"
        },
        {
          "indexed": false,
          "internalType": "bool",
          "name": "approved",
          "type": "bool"
        }
      ],
      "name": "ApprovalForAll",
      "type": "event"
    },
    {
      "anonymous": false,
      "inputs": [
        {
          "indexed": true,
          "internalType": "uint256",
          "name": "tokenId",
          "type": "uint256"
        },
        {
          "indexed": false,
          "internalType": "address",
          "name": "seller",
          "type": "address"
        },
        {
          "indexed": false,
          "internalType": "address",
          "name": "buyer",
          "type": "address"
        },
        {
          "indexed": false,
          "internalType": "uint256",
          "name": "price",
          "type": "uint256"
        }
      ],
      "name": "AuctionFinished",
      "type": "event"
    },
    {
      "anonymous": false,
      "inputs": [
        {
          "indexed": true,
          "internalType": "uint256",
          "name": "tokenId",
          "type": "uint256"
        },
        {
          "indexed": false,
          "internalType": "uint256",
          "name": "minPrice",
          "type": "uint256"
        },
        {
          "indexed": false,
          "internalType": "address",
          "name": "seller",
          "type": "address"
        },
        {
          "indexed": false,
          "internalType": "bool",
          "name": "currentlyListed",
          "type": "bool"
        }
      ],
      "name": "AuctionInitialized",
      "type": "event"
    },
    {
      "anonymous": false,
      "inputs": [
        {
          "indexed": true,
          "internalType": "address",
          "name": "from",
          "type": "address"
        },
        {
          "indexed": true,
          "internalType": "address",
          "name": "to",
          "type": "address"
        },
        {
          "indexed": true,
          "internalType": "uint256",
          "name": "tokenId",
          "type": "uint256"
        }
      ],
      "name": "Transfer",
      "type": "event"
    },
    {
      "inputs": [
        {
          "internalType": "address",
          "name": "to",
          "type": "address"
        },
        {
          "internalType": "uint256",
          "name": "tokenId",
          "type": "uint256"
        }
      ],
      "name": "approve",
      "outputs": [],
      "stateMutability": "nonpayable",
      "type": "function"
    },
    {
      "inputs": [
        {
          "internalType": "address",
          "name": "owner",
          "type": "address"
        }
      ],
      "name": "balanceOf",
      "outputs": [
        {
          "internalType": "uint256",
          "name": "",
          "type": "uint256"
        }
      ],
      "stateMutability": "view",
      "type": "function"
    },
    {
      "inputs": [
        {
          "internalType": "uint256",
          "name": "tokenId",
          "type": "uint256"
        },
        {
          "internalType": "uint256",
          "name": "bidPrice",
          "type": "uint256"
        },
        {
          "internalType": "address",
          "name": "bidder",
          "type": "address"
        }
      ],
      "name": "bid",
      "outputs": [
        {
          "components": [
            {
              "internalType": "uint256",
              "name": "productTokenId",
              "type": "uint256"
            },
            {
              "internalType": "address payable",
              "name": "seller",
              "type": "address"
            },
            {
              "internalType": "address payable",
              "name": "lastBidder",
              "type": "address"
            },
            {
              "internalType": "uint256",
              "name": "bestPrice",
              "type": "uint256"
            },
            {
              "internalType": "uint256",
              "name": "bidPosition",
              "type": "uint256"
            },
            {
              "internalType": "bool",
              "name": "currentlyListed",
              "type": "bool"
            }
          ],
          "internalType": "struct Auction.ProductAuction",
          "name": "",
          "type": "tuple"
        }
      ],
      "stateMutability": "payable",
      "type": "function"
    },
    {
      "inputs": [
        {
          "internalType": "string",
          "name": "tokenURI",
          "type": "string"
        },
        {
          "internalType": "address",
          "name": "seller",
          "type": "address"
        }
      ],
      "name": "createProductToken",
      "outputs": [
        {
          "internalType": "string",
          "name": "",
          "type": "string"
        }
      ],
      "stateMutability": "nonpayable",
      "type": "function"
    },
    {
      "inputs": [
        {
          "internalType": "uint256",
          "name": "tokenId",
          "type": "uint256"
        }
      ],
      "name": "getApproved",
      "outputs": [
        {
          "internalType": "address",
          "name": "",
          "type": "address"
        }
      ],
      "stateMutability": "view",
      "type": "function"
    },
    {
      "inputs": [],
      "name": "getCurrentTokenId",
      "outputs": [
        {
          "internalType": "string",
          "name": "",
          "type": "string"
        }
      ],
      "stateMutability": "view",
      "type": "function"
    },
    {
      "inputs": [
        {
          "internalType": "uint256",
          "name": "tokenId",
          "type": "uint256"
        },
        {
          "internalType": "uint256",
          "name": "initialPrice",
          "type": "uint256"
        }
      ],
      "name": "initializeAuction",
      "outputs": [
        {
          "components": [
            {
              "internalType": "uint256",
              "name": "productTokenId",
              "type": "uint256"
            },
            {
              "internalType": "address payable",
              "name": "seller",
              "type": "address"
            },
            {
              "internalType": "address payable",
              "name": "lastBidder",
              "type": "address"
            },
            {
              "internalType": "uint256",
              "name": "bestPrice",
              "type": "uint256"
            },
            {
              "internalType": "uint256",
              "name": "bidPosition",
              "type": "uint256"
            },
            {
              "internalType": "bool",
              "name": "currentlyListed",
              "type": "bool"
            }
          ],
          "internalType": "struct Auction.ProductAuction",
          "name": "",
          "type": "tuple"
        }
      ],
      "stateMutability": "payable",
      "type": "function"
    },
    {
      "inputs": [
        {
          "internalType": "address",
          "name": "owner",
          "type": "address"
        },
        {
          "internalType": "address",
          "name": "operator",
          "type": "address"
        }
      ],
      "name": "isApprovedForAll",
      "outputs": [
        {
          "internalType": "bool",
          "name": "",
          "type": "bool"
        }
      ],
      "stateMutability": "view",
      "type": "function"
    },
    {
      "inputs": [],
      "name": "name",
      "outputs": [
        {
          "internalType": "string",
          "name": "",
          "type": "string"
        }
      ],
      "stateMutability": "view",
      "type": "function"
    },
    {
      "inputs": [
        {
          "internalType": "uint256",
          "name": "tokenId",
          "type": "uint256"
        }
      ],
      "name": "ownerOf",
      "outputs": [
        {
          "internalType": "address",
          "name": "",
          "type": "address"
        }
      ],
      "stateMutability": "view",
      "type": "function"
    },
    {
      "inputs": [
        {
          "internalType": "address",
          "name": "from",
          "type": "address"
        },
        {
          "internalType": "address",
          "name": "to",
          "type": "address"
        },
        {
          "internalType": "uint256",
          "name": "tokenId",
          "type": "uint256"
        }
      ],
      "name": "safeTransferFrom",
      "outputs": [],
      "stateMutability": "nonpayable",
      "type": "function"
    },
    {
      "inputs": [
        {
          "internalType": "address",
          "name": "from",
          "type": "address"
        },
        {
          "internalType": "address",
          "name": "to",
          "type": "address"
        },
        {
          "internalType": "uint256",
          "name": "tokenId",
          "type": "uint256"
        },
        {
          "internalType": "bytes",
          "name": "data",
          "type": "bytes"
        }
      ],
      "name": "safeTransferFrom",
      "outputs": [],
      "stateMutability": "nonpayable",
      "type": "function"
    },
    {
      "inputs": [
        {
          "internalType": "address",
          "name": "operator",
          "type": "address"
        },
        {
          "internalType": "bool",
          "name": "approved",
          "type": "bool"
        }
      ],
      "name": "setApprovalForAll",
      "outputs": [],
      "stateMutability": "nonpayable",
      "type": "function"
    },
    {
      "inputs": [
        {
          "internalType": "bytes4",
          "name": "interfaceId",
          "type": "bytes4"
        }
      ],
      "name": "supportsInterface",
      "outputs": [
        {
          "internalType": "bool",
          "name": "",
          "type": "bool"
        }
      ],
      "stateMutability": "view",
      "type": "function"
    },
    {
      "inputs": [],
      "name": "symbol",
      "outputs": [
        {
          "internalType": "string",
          "name": "",
          "type": "string"
        }
      ],
      "stateMutability": "view",
      "type": "function"
    },
    {
      "inputs": [
        {
          "internalType": "uint256",
          "name": "tokenId",
          "type": "uint256"
        }
      ],
      "name": "tokenURI",
      "outputs": [
        {
          "internalType": "string",
          "name": "",
          "type": "string"
        }
      ],
      "stateMutability": "view",
      "type": "function"
    },
    {
      "inputs": [
        {
          "internalType": "address",
          "name": "from",
          "type": "address"
        },
        {
          "internalType": "address",
          "name": "to",
          "type": "address"
        },
        {
          "internalType": "uint256",
          "name": "tokenId",
          "type": "uint256"
        }
      ],
      "name": "transferFrom",
      "outputs": [],
      "stateMutability": "nonpayable",
      "type": "function"
    }
  ],
  "bytecode": "0x608060405266038d7ea4c68000600b553480156200001c57600080fd5b506040518060400160405280600781526020017f41756374696f6e000000000000000000000000000000000000000000000000008152506040518060400160405280600481526020017f41554354000000000000000000000000000000000000000000000000000000008152508160009080519060200190620000a19291906200010c565b508060019080519060200190620000ba9291906200010c565b50505033600860006101000a81548173ffffffffffffffffffffffffffffffffffffffff021916908373ffffffffffffffffffffffffffffffffffffffff160217905550600a60098190555062000221565b8280546200011a90620001eb565b90600052602060002090601f0160209004810192826200013e57600085556200018a565b82601f106200015957805160ff19168380011785556200018a565b828001600101855582156200018a579182015b82811115620001895782518255916020019190600101906200016c565b5b5090506200019991906200019d565b5090565b5b80821115620001b85760008160009055506001016200019e565b5090565b7f4e487b7100000000000000000000000000000000000000000000000000000000600052602260045260246000fd5b600060028204905060018216806200020457607f821691505b602082108114156200021b576200021a620001bc565b5b50919050565b613ba280620002316000396000f3fe6080604052600436106100fe5760003560e01c80636352211e11610095578063a22cb46511610064578063a22cb46514610360578063b88d4fde14610389578063c60d0d32146103b2578063c87b56dd146103e2578063e985e9c51461041f576100fe565b80636352211e1461028b57806370a08231146102c8578063742f0a901461030557806395d89b4114610335576100fe565b806323b872dd116100d157806323b872dd146101d15780632a15966b146101fa57806342842e0e146102375780635618923614610260576100fe565b806301ffc9a71461010357806306fdde0314610140578063081812fc1461016b578063095ea7b3146101a8575b600080fd5b34801561010f57600080fd5b5061012a600480360381019061012591906127af565b61045c565b60405161013791906127f7565b60405180910390f35b34801561014c57600080fd5b5061015561053e565b60405161016291906128ab565b60405180910390f35b34801561017757600080fd5b50610192600480360381019061018d9190612903565b6105d0565b60405161019f9190612971565b60405180910390f35b3480156101b457600080fd5b506101cf60048036038101906101ca91906129b8565b610616565b005b3480156101dd57600080fd5b506101f860048036038101906101f391906129f8565b61072e565b005b34801561020657600080fd5b50610221600480360381019061021c9190612b80565b61078e565b60405161022e91906128ab565b60405180910390f35b34801561024357600080fd5b5061025e600480360381019061025991906129f8565b610868565b005b34801561026c57600080fd5b50610275610888565b60405161028291906128ab565b60405180910390f35b34801561029757600080fd5b506102b260048036038101906102ad9190612903565b6108a1565b6040516102bf9190612971565b60405180910390f35b3480156102d457600080fd5b506102ef60048036038101906102ea9190612bdc565b610928565b6040516102fc9190612c18565b60405180910390f35b61031f600480360381019061031a9190612c33565b6109e0565b60405161032c9190612d40565b60405180910390f35b34801561034157600080fd5b5061034a610d07565b60405161035791906128ab565b60405180910390f35b34801561036c57600080fd5b5061038760048036038101906103829190612d87565b610d99565b005b34801561039557600080fd5b506103b060048036038101906103ab9190612e68565b610daf565b005b6103cc60048036038101906103c79190612eeb565b610e11565b6040516103d99190612d40565b60405180910390f35b3480156103ee57600080fd5b5061040960048036038101906104049190612903565b6110f8565b60405161041691906128ab565b60405180910390f35b34801561042b57600080fd5b5061044660048036038101906104419190612f2b565b61120b565b60405161045391906127f7565b60405180910390f35b60007f80ac58cd000000000000000000000000000000000000000000000000000000007bffffffffffffffffffffffffffffffffffffffffffffffffffffffff1916827bffffffffffffffffffffffffffffffffffffffffffffffffffffffff1916148061052757507f5b5e139f000000000000000000000000000000000000000000000000000000007bffffffffffffffffffffffffffffffffffffffffffffffffffffffff1916827bffffffffffffffffffffffffffffffffffffffffffffffffffffffff1916145b8061053757506105368261129f565b5b9050919050565b60606000805461054d90612f9a565b80601f016020809104026020016040519081016040528092919081815260200182805461057990612f9a565b80156105c65780601f1061059b576101008083540402835291602001916105c6565b820191906000526020600020905b8154815290600101906020018083116105a957829003601f168201915b5050505050905090565b60006105db82611309565b6004600083815260200190815260200160002060009054906101000a900473ffffffffffffffffffffffffffffffffffffffff169050919050565b6000610621826108a1565b90508073ffffffffffffffffffffffffffffffffffffffff168373ffffffffffffffffffffffffffffffffffffffff161415610692576040517f08c379a00000000000000000000000000000000000000000000000000000000081526004016106899061303e565b60405180910390fd5b8073ffffffffffffffffffffffffffffffffffffffff166106b1611354565b73ffffffffffffffffffffffffffffffffffffffff1614806106e057506106df816106da611354565b61120b565b5b61071f576040517f08c379a0000000000000000000000000000000000000000000000000000000008152600401610716906130d0565b60405180910390fd5b610729838361135c565b505050565b61073f610739611354565b82611415565b61077e576040517f08c379a000000000000000000000000000000000000000000000000000000000815260040161077590613162565b60405180910390fd5b6107898383836114aa565b505050565b60603373ffffffffffffffffffffffffffffffffffffffff16600860009054906101000a900473ffffffffffffffffffffffffffffffffffffffff1673ffffffffffffffffffffffffffffffffffffffff1614610820576040517f08c379a0000000000000000000000000000000000000000000000000000000008152600401610817906131ce565b60405180910390fd5b61082a60076117a4565b600061083660076117ba565b905061084233826117c8565b61084c81856117e6565b610856818461185a565b61085f8161199e565b91505092915050565b61088383838360405180602001604052806000815250610daf565b505050565b606061089c61089760076117ba565b61199e565b905090565b6000806108ad83611a76565b9050600073ffffffffffffffffffffffffffffffffffffffff168173ffffffffffffffffffffffffffffffffffffffff16141561091f576040517f08c379a00000000000000000000000000000000000000000000000000000000081526004016109169061323a565b60405180910390fd5b80915050919050565b60008073ffffffffffffffffffffffffffffffffffffffff168273ffffffffffffffffffffffffffffffffffffffff161415610999576040517f08c379a0000000000000000000000000000000000000000000000000000000008152600401610990906132cc565b60405180910390fd5b600360008373ffffffffffffffffffffffffffffffffffffffff1673ffffffffffffffffffffffffffffffffffffffff168152602001908152602001600020549050919050565b6109e861263c565b3373ffffffffffffffffffffffffffffffffffffffff16600860009054906101000a900473ffffffffffffffffffffffffffffffffffffffff1673ffffffffffffffffffffffffffffffffffffffff1614610a78576040517f08c379a0000000000000000000000000000000000000000000000000000000008152600401610a6f906131ce565b60405180910390fd5b600a600085815260200190815260200160002060050160009054906101000a900460ff16610adb576040517f08c379a0000000000000000000000000000000000000000000000000000000008152600401610ad290613338565b60405180910390fd5b600a6000858152602001908152602001600020600301548311610b33576040517f08c379a0000000000000000000000000000000000000000000000000000000008152600401610b2a906133ca565b60405180910390fd5b82600a60008681526020019081526020016000206003018190555081600a600086815260200190815260200160002060020160006101000a81548173ffffffffffffffffffffffffffffffffffffffff021916908373ffffffffffffffffffffffffffffffffffffffff1602179055506001600a60008681526020019081526020016000206004016000828254610bca9190613419565b92505081905550600954600a6000868152602001908152602001600020600401541415610bfb57610bfa84611ab3565b5b600a60008581526020019081526020016000206040518060c0016040529081600082015481526020016001820160009054906101000a900473ffffffffffffffffffffffffffffffffffffffff1673ffffffffffffffffffffffffffffffffffffffff1673ffffffffffffffffffffffffffffffffffffffff1681526020016002820160009054906101000a900473ffffffffffffffffffffffffffffffffffffffff1673ffffffffffffffffffffffffffffffffffffffff1673ffffffffffffffffffffffffffffffffffffffff16815260200160038201548152602001600482015481526020016005820160009054906101000a900460ff16151515158152505090509392505050565b606060018054610d1690612f9a565b80601f0160208091040260200160405190810160405280929190818152602001828054610d4290612f9a565b8015610d8f5780601f10610d6457610100808354040283529160200191610d8f565b820191906000526020600020905b815481529060010190602001808311610d7257829003601f168201915b5050505050905090565b610dab610da4611354565b8383611d01565b5050565b610dc0610dba611354565b83611415565b610dff576040517f08c379a0000000000000000000000000000000000000000000000000000000008152600401610df690613162565b60405180910390fd5b610e0b84848484611e6e565b50505050565b610e1961263c565b3373ffffffffffffffffffffffffffffffffffffffff16600860009054906101000a900473ffffffffffffffffffffffffffffffffffffffff1673ffffffffffffffffffffffffffffffffffffffff1614610ea9576040517f08c379a0000000000000000000000000000000000000000000000000000000008152600401610ea0906131ce565b60405180910390fd5b600b543414610eed576040517f08c379a0000000000000000000000000000000000000000000000000000000008152600401610ee4906134e1565b60405180910390fd5b60008211610f30576040517f08c379a0000000000000000000000000000000000000000000000000000000008152600401610f279061354d565b60405180910390fd5b81600a6000858152602001908152602001600020600301819055506001600a600085815260200190815260200160002060050160006101000a81548160ff021916908315150217905550827f99b96b6f4fd045a23f0c7e9af6549db91ea9399606e53fce4985c2c5d5beb6e983600a600087815260200190815260200160002060010160009054906101000a900473ffffffffffffffffffffffffffffffffffffffff166001604051610fe5939291906135cc565b60405180910390a2600a60008481526020019081526020016000206040518060c0016040529081600082015481526020016001820160009054906101000a900473ffffffffffffffffffffffffffffffffffffffff1673ffffffffffffffffffffffffffffffffffffffff1673ffffffffffffffffffffffffffffffffffffffff1681526020016002820160009054906101000a900473ffffffffffffffffffffffffffffffffffffffff1673ffffffffffffffffffffffffffffffffffffffff1673ffffffffffffffffffffffffffffffffffffffff16815260200160038201548152602001600482015481526020016005820160009054906101000a900460ff161515151581525050905092915050565b606061110382611309565b600060066000848152602001908152602001600020805461112390612f9a565b80601f016020809104026020016040519081016040528092919081815260200182805461114f90612f9a565b801561119c5780601f106111715761010080835404028352916020019161119c565b820191906000526020600020905b81548152906001019060200180831161117f57829003601f168201915b5050505050905060006111ad611eca565b90506000815114156111c3578192505050611206565b6000825111156111f85780826040516020016111e092919061363f565b60405160208183030381529060405292505050611206565b61120184611ee1565b925050505b919050565b6000600560008473ffffffffffffffffffffffffffffffffffffffff1673ffffffffffffffffffffffffffffffffffffffff16815260200190815260200160002060008373ffffffffffffffffffffffffffffffffffffffff1673ffffffffffffffffffffffffffffffffffffffff16815260200190815260200160002060009054906101000a900460ff16905092915050565b60007f01ffc9a7000000000000000000000000000000000000000000000000000000007bffffffffffffffffffffffffffffffffffffffffffffffffffffffff1916827bffffffffffffffffffffffffffffffffffffffffffffffffffffffff1916149050919050565b61131281611f49565b611351576040517f08c379a00000000000000000000000000000000000000000000000000000000081526004016113489061323a565b60405180910390fd5b50565b600033905090565b816004600083815260200190815260200160002060006101000a81548173ffffffffffffffffffffffffffffffffffffffff021916908373ffffffffffffffffffffffffffffffffffffffff160217905550808273ffffffffffffffffffffffffffffffffffffffff166113cf836108a1565b73ffffffffffffffffffffffffffffffffffffffff167f8c5be1e5ebec7d5bd14f71427d1e84f3dd0314c0f7b2291e5b200ac8c7c3b92560405160405180910390a45050565b600080611421836108a1565b90508073ffffffffffffffffffffffffffffffffffffffff168473ffffffffffffffffffffffffffffffffffffffff1614806114635750611462818561120b565b5b806114a157508373ffffffffffffffffffffffffffffffffffffffff16611489846105d0565b73ffffffffffffffffffffffffffffffffffffffff16145b91505092915050565b8273ffffffffffffffffffffffffffffffffffffffff166114ca826108a1565b73ffffffffffffffffffffffffffffffffffffffff1614611520576040517f08c379a0000000000000000000000000000000000000000000000000000000008152600401611517906136d5565b60405180910390fd5b600073ffffffffffffffffffffffffffffffffffffffff168273ffffffffffffffffffffffffffffffffffffffff161415611590576040517f08c379a000000000000000000000000000000000000000000000000000000000815260040161158790613767565b60405180910390fd5b61159d8383836001611f8a565b8273ffffffffffffffffffffffffffffffffffffffff166115bd826108a1565b73ffffffffffffffffffffffffffffffffffffffff1614611613576040517f08c379a000000000000000000000000000000000000000000000000000000000815260040161160a906136d5565b60405180910390fd5b6004600082815260200190815260200160002060006101000a81549073ffffffffffffffffffffffffffffffffffffffff02191690556001600360008573ffffffffffffffffffffffffffffffffffffffff1673ffffffffffffffffffffffffffffffffffffffff168152602001908152602001600020600082825403925050819055506001600360008473ffffffffffffffffffffffffffffffffffffffff1673ffffffffffffffffffffffffffffffffffffffff16815260200190815260200160002060008282540192505081905550816002600083815260200190815260200160002060006101000a81548173ffffffffffffffffffffffffffffffffffffffff021916908373ffffffffffffffffffffffffffffffffffffffff160217905550808273ffffffffffffffffffffffffffffffffffffffff168473ffffffffffffffffffffffffffffffffffffffff167fddf252ad1be2c89b69c2b068fc378daa952ba7f163c4a11628f55a4df523b3ef60405160405180910390a461179f83838360016120b0565b505050565b6001816000016000828254019250508190555050565b600081600001549050919050565b6117e28282604051806020016040528060008152506120b6565b5050565b6117ef82611f49565b61182e576040517f08c379a0000000000000000000000000000000000000000000000000000000008152600401611825906137f9565b60405180910390fd5b806006600084815260200190815260200160002090805190602001906118559291906126a0565b505050565b6040518060c001604052808381526020018273ffffffffffffffffffffffffffffffffffffffff1681526020018273ffffffffffffffffffffffffffffffffffffffff168152602001600081526020016000815260200160001515815250600a60008481526020019081526020016000206000820151816000015560208201518160010160006101000a81548173ffffffffffffffffffffffffffffffffffffffff021916908373ffffffffffffffffffffffffffffffffffffffff16021790555060408201518160020160006101000a81548173ffffffffffffffffffffffffffffffffffffffff021916908373ffffffffffffffffffffffffffffffffffffffff160217905550606082015181600301556080820151816004015560a08201518160050160006101000a81548160ff0219169083151502179055509050505050565b6060600060016119ad84612111565b01905060008167ffffffffffffffff8111156119cc576119cb612a55565b5b6040519080825280601f01601f1916602001820160405280156119fe5781602001600182028036833780820191505090505b509050600082602001820190505b600115611a6b578080600190039150507f3031323334353637383961626364656600000000000000000000000000000000600a86061a8153600a8581611a5557611a54613819565b5b0494506000851415611a6657611a6b565b611a0c565b819350505050919050565b60006002600083815260200190815260200160002060009054906101000a900473ffffffffffffffffffffffffffffffffffffffff169050919050565b611b16600860009054906101000a900473ffffffffffffffffffffffffffffffffffffffff16600a600084815260200190815260200160002060020160009054906101000a900473ffffffffffffffffffffffffffffffffffffffff16836114aa565b611b42600860009054906101000a900473ffffffffffffffffffffffffffffffffffffffff1682610616565b600860009054906101000a900473ffffffffffffffffffffffffffffffffffffffff1673ffffffffffffffffffffffffffffffffffffffff166108fc600b549081150290604051600060405180830381858888f19350505050158015611bac573d6000803e3d6000fd5b50600a600082815260200190815260200160002060010160009054906101000a900473ffffffffffffffffffffffffffffffffffffffff1673ffffffffffffffffffffffffffffffffffffffff166108fc600a6000848152602001908152602001600020600301549081150290604051600060405180830381858888f19350505050158015611c3f573d6000803e3d6000fd5b50807ffa491e148fe93128a73f56621b508cb48fa1bc1480f6a3a9790c00224f23752e600a600084815260200190815260200160002060010160009054906101000a900473ffffffffffffffffffffffffffffffffffffffff16600a600085815260200190815260200160002060020160009054906101000a900473ffffffffffffffffffffffffffffffffffffffff16600a600086815260200190815260200160002060030154604051611cf693929190613848565b60405180910390a250565b8173ffffffffffffffffffffffffffffffffffffffff168373ffffffffffffffffffffffffffffffffffffffff161415611d70576040517f08c379a0000000000000000000000000000000000000000000000000000000008152600401611d67906138cb565b60405180910390fd5b80600560008573ffffffffffffffffffffffffffffffffffffffff1673ffffffffffffffffffffffffffffffffffffffff16815260200190815260200160002060008473ffffffffffffffffffffffffffffffffffffffff1673ffffffffffffffffffffffffffffffffffffffff16815260200190815260200160002060006101000a81548160ff0219169083151502179055508173ffffffffffffffffffffffffffffffffffffffff168373ffffffffffffffffffffffffffffffffffffffff167f17307eab39ab6107e8899845ad3d59bd9653f200f220920489ca2b5937696c3183604051611e6191906127f7565b60405180910390a3505050565b611e798484846114aa565b611e8584848484612264565b611ec4576040517f08c379a0000000000000000000000000000000000000000000000000000000008152600401611ebb9061395d565b60405180910390fd5b50505050565b606060405180602001604052806000815250905090565b6060611eec82611309565b6000611ef6611eca565b90506000815111611f165760405180602001604052806000815250611f41565b80611f208461199e565b604051602001611f3192919061363f565b6040516020818303038152906040525b915050919050565b60008073ffffffffffffffffffffffffffffffffffffffff16611f6b83611a76565b73ffffffffffffffffffffffffffffffffffffffff1614159050919050565b60018111156120aa57600073ffffffffffffffffffffffffffffffffffffffff168473ffffffffffffffffffffffffffffffffffffffff161461201e5780600360008673ffffffffffffffffffffffffffffffffffffffff1673ffffffffffffffffffffffffffffffffffffffff1681526020019081526020016000206000828254612016919061397d565b925050819055505b600073ffffffffffffffffffffffffffffffffffffffff168373ffffffffffffffffffffffffffffffffffffffff16146120a95780600360008573ffffffffffffffffffffffffffffffffffffffff1673ffffffffffffffffffffffffffffffffffffffff16815260200190815260200160002060008282546120a19190613419565b925050819055505b5b50505050565b50505050565b6120c083836123fb565b6120cd6000848484612264565b61210c576040517f08c379a00000000000000000000000000000000000000000000000000000000081526004016121039061395d565b60405180910390fd5b505050565b600080600090507a184f03e93ff9f4daa797ed6e38ed64bf6a1f010000000000000000831061216f577a184f03e93ff9f4daa797ed6e38ed64bf6a1f010000000000000000838161216557612164613819565b5b0492506040810190505b6d04ee2d6d415b85acef810000000083106121ac576d04ee2d6d415b85acef810000000083816121a2576121a1613819565b5b0492506020810190505b662386f26fc1000083106121db57662386f26fc1000083816121d1576121d0613819565b5b0492506010810190505b6305f5e1008310612204576305f5e10083816121fa576121f9613819565b5b0492506008810190505b612710831061222957612710838161221f5761221e613819565b5b0492506004810190505b6064831061224c576064838161224257612241613819565b5b0492506002810190505b600a831061225b576001810190505b80915050919050565b60006122858473ffffffffffffffffffffffffffffffffffffffff16612619565b156123ee578373ffffffffffffffffffffffffffffffffffffffff1663150b7a026122ae611354565b8786866040518563ffffffff1660e01b81526004016122d09493929190613a06565b602060405180830381600087803b1580156122ea57600080fd5b505af192505050801561231b57506040513d601f19601f820116820180604052508101906123189190613a67565b60015b61239e573d806000811461234b576040519150601f19603f3d011682016040523d82523d6000602084013e612350565b606091505b50600081511415612396576040517f08c379a000000000000000000000000000000000000000000000000000000000815260040161238d9061395d565b60405180910390fd5b805181602001fd5b63150b7a0260e01b7bffffffffffffffffffffffffffffffffffffffffffffffffffffffff1916817bffffffffffffffffffffffffffffffffffffffffffffffffffffffff1916149150506123f3565b600190505b949350505050565b600073ffffffffffffffffffffffffffffffffffffffff168273ffffffffffffffffffffffffffffffffffffffff16141561246b576040517f08c379a000000000000000000000000000000000000000000000000000000000815260040161246290613ae0565b60405180910390fd5b61247481611f49565b156124b4576040517f08c379a00000000000000000000000000000000000000000000000000000000081526004016124ab90613b4c565b60405180910390fd5b6124c2600083836001611f8a565b6124cb81611f49565b1561250b576040517f08c379a000000000000000000000000000000000000000000000000000000000815260040161250290613b4c565b60405180910390fd5b6001600360008473ffffffffffffffffffffffffffffffffffffffff1673ffffffffffffffffffffffffffffffffffffffff16815260200190815260200160002060008282540192505081905550816002600083815260200190815260200160002060006101000a81548173ffffffffffffffffffffffffffffffffffffffff021916908373ffffffffffffffffffffffffffffffffffffffff160217905550808273ffffffffffffffffffffffffffffffffffffffff16600073ffffffffffffffffffffffffffffffffffffffff167fddf252ad1be2c89b69c2b068fc378daa952ba7f163c4a11628f55a4df523b3ef60405160405180910390a46126156000838360016120b0565b5050565b6000808273ffffffffffffffffffffffffffffffffffffffff163b119050919050565b6040518060c0016040528060008152602001600073ffffffffffffffffffffffffffffffffffffffff168152602001600073ffffffffffffffffffffffffffffffffffffffff16815260200160008152602001600081526020016000151581525090565b8280546126ac90612f9a565b90600052602060002090601f0160209004810192826126ce5760008555612715565b82601f106126e757805160ff1916838001178555612715565b82800160010185558215612715579182015b828111156127145782518255916020019190600101906126f9565b5b5090506127229190612726565b5090565b5b8082111561273f576000816000905550600101612727565b5090565b6000604051905090565b600080fd5b600080fd5b60007fffffffff0000000000000000000000000000000000000000000000000000000082169050919050565b61278c81612757565b811461279757600080fd5b50565b6000813590506127a981612783565b92915050565b6000602082840312156127c5576127c461274d565b5b60006127d38482850161279a565b91505092915050565b60008115159050919050565b6127f1816127dc565b82525050565b600060208201905061280c60008301846127e8565b92915050565b600081519050919050565b600082825260208201905092915050565b60005b8381101561284c578082015181840152602081019050612831565b8381111561285b576000848401525b50505050565b6000601f19601f8301169050919050565b600061287d82612812565b612887818561281d565b935061289781856020860161282e565b6128a081612861565b840191505092915050565b600060208201905081810360008301526128c58184612872565b905092915050565b6000819050919050565b6128e0816128cd565b81146128eb57600080fd5b50565b6000813590506128fd816128d7565b92915050565b6000602082840312156129195761291861274d565b5b6000612927848285016128ee565b91505092915050565b600073ffffffffffffffffffffffffffffffffffffffff82169050919050565b600061295b82612930565b9050919050565b61296b81612950565b82525050565b60006020820190506129866000830184612962565b92915050565b61299581612950565b81146129a057600080fd5b50565b6000813590506129b28161298c565b92915050565b600080604083850312156129cf576129ce61274d565b5b60006129dd858286016129a3565b92505060206129ee858286016128ee565b9150509250929050565b600080600060608486031215612a1157612a1061274d565b5b6000612a1f868287016129a3565b9350506020612a30868287016129a3565b9250506040612a41868287016128ee565b9150509250925092565b600080fd5b600080fd5b7f4e487b7100000000000000000000000000000000000000000000000000000000600052604160045260246000fd5b612a8d82612861565b810181811067ffffffffffffffff82111715612aac57612aab612a55565b5b80604052505050565b6000612abf612743565b9050612acb8282612a84565b919050565b600067ffffffffffffffff821115612aeb57612aea612a55565b5b612af482612861565b9050602081019050919050565b82818337600083830152505050565b6000612b23612b1e84612ad0565b612ab5565b905082815260208101848484011115612b3f57612b3e612a50565b5b612b4a848285612b01565b509392505050565b600082601f830112612b6757612b66612a4b565b5b8135612b77848260208601612b10565b91505092915050565b60008060408385031215612b9757612b9661274d565b5b600083013567ffffffffffffffff811115612bb557612bb4612752565b5b612bc185828601612b52565b9250506020612bd2858286016129a3565b9150509250929050565b600060208284031215612bf257612bf161274d565b5b6000612c00848285016129a3565b91505092915050565b612c12816128cd565b82525050565b6000602082019050612c2d6000830184612c09565b92915050565b600080600060608486031215612c4c57612c4b61274d565b5b6000612c5a868287016128ee565b9350506020612c6b868287016128ee565b9250506040612c7c868287016129a3565b9150509250925092565b612c8f816128cd565b82525050565b6000612ca082612930565b9050919050565b612cb081612c95565b82525050565b612cbf816127dc565b82525050565b60c082016000820151612cdb6000850182612c86565b506020820151612cee6020850182612ca7565b506040820151612d016040850182612ca7565b506060820151612d146060850182612c86565b506080820151612d276080850182612c86565b5060a0820151612d3a60a0850182612cb6565b50505050565b600060c082019050612d556000830184612cc5565b92915050565b612d64816127dc565b8114612d6f57600080fd5b50565b600081359050612d8181612d5b565b92915050565b60008060408385031215612d9e57612d9d61274d565b5b6000612dac858286016129a3565b9250506020612dbd85828601612d72565b9150509250929050565b600067ffffffffffffffff821115612de257612de1612a55565b5b612deb82612861565b9050602081019050919050565b6000612e0b612e0684612dc7565b612ab5565b905082815260208101848484011115612e2757612e26612a50565b5b612e32848285612b01565b509392505050565b600082601f830112612e4f57612e4e612a4b565b5b8135612e5f848260208601612df8565b91505092915050565b60008060008060808587031215612e8257612e8161274d565b5b6000612e90878288016129a3565b9450506020612ea1878288016129a3565b9350506040612eb2878288016128ee565b925050606085013567ffffffffffffffff811115612ed357612ed2612752565b5b612edf87828801612e3a565b91505092959194509250565b60008060408385031215612f0257612f0161274d565b5b6000612f10858286016128ee565b9250506020612f21858286016128ee565b9150509250929050565b60008060408385031215612f4257612f4161274d565b5b6000612f50858286016129a3565b9250506020612f61858286016129a3565b9150509250929050565b7f4e487b7100000000000000000000000000000000000000000000000000000000600052602260045260246000fd5b60006002820490506001821680612fb257607f821691505b60208210811415612fc657612fc5612f6b565b5b50919050565b7f4552433732313a20617070726f76616c20746f2063757272656e74206f776e6560008201527f7200000000000000000000000000000000000000000000000000000000000000602082015250565b600061302860218361281d565b915061303382612fcc565b604082019050919050565b600060208201905081810360008301526130578161301b565b9050919050565b7f4552433732313a20617070726f76652063616c6c6572206973206e6f7420746f60008201527f6b656e206f776e6572206f7220617070726f76656420666f7220616c6c000000602082015250565b60006130ba603d8361281d565b91506130c58261305e565b604082019050919050565b600060208201905081810360008301526130e9816130ad565b9050919050565b7f4552433732313a2063616c6c6572206973206e6f7420746f6b656e206f776e6560008201527f72206f7220617070726f76656400000000000000000000000000000000000000602082015250565b600061314c602d8361281d565b9150613157826130f0565b604082019050919050565b6000602082019050818103600083015261317b8161313f565b9050919050565b7f4f6e6c79206f776e65722063616e2063726561746520746f6b656e0000000000600082015250565b60006131b8601b8361281d565b91506131c382613182565b602082019050919050565b600060208201905081810360008301526131e7816131ab565b9050919050565b7f4552433732313a20696e76616c696420746f6b656e2049440000000000000000600082015250565b600061322460188361281d565b915061322f826131ee565b602082019050919050565b6000602082019050818103600083015261325381613217565b9050919050565b7f4552433732313a2061646472657373207a65726f206973206e6f74206120766160008201527f6c6964206f776e65720000000000000000000000000000000000000000000000602082015250565b60006132b660298361281d565b91506132c18261325a565b604082019050919050565b600060208201905081810360008301526132e5816132a9565b9050919050565b7f4e6f204c69737465642050726f6475637420666f756e64000000000000000000600082015250565b600061332260178361281d565b915061332d826132ec565b602082019050919050565b6000602082019050818103600083015261335181613315565b9050919050565b7f746865207072696365206d75737420626520686967686572207468616e20746860008201527f65206c6173742042696400000000000000000000000000000000000000000000602082015250565b60006133b4602a8361281d565b91506133bf82613358565b604082019050919050565b600060208201905081810360008301526133e3816133a7565b9050919050565b7f4e487b7100000000000000000000000000000000000000000000000000000000600052601160045260246000fd5b6000613424826128cd565b915061342f836128cd565b9250827fffffffffffffffffffffffffffffffffffffffffffffffffffffffffffffffff03821115613464576134636133ea565b5b828201905092915050565b7f416d6f756e7420666f72206c697374696e67207072696365206973206469666660008201527f6572656e74000000000000000000000000000000000000000000000000000000602082015250565b60006134cb60258361281d565b91506134d68261346f565b604082019050919050565b600060208201905081810360008301526134fa816134be565b9050919050565b7f746865207072696365206973206e656761746976650000000000000000000000600082015250565b600061353760158361281d565b915061354282613501565b602082019050919050565b600060208201905081810360008301526135668161352a565b9050919050565b6000819050919050565b600061359261358d61358884612930565b61356d565b612930565b9050919050565b60006135a482613577565b9050919050565b60006135b682613599565b9050919050565b6135c6816135ab565b82525050565b60006060820190506135e16000830186612c09565b6135ee60208301856135bd565b6135fb60408301846127e8565b949350505050565b600081905092915050565b600061361982612812565b6136238185613603565b935061363381856020860161282e565b80840191505092915050565b600061364b828561360e565b9150613657828461360e565b91508190509392505050565b7f4552433732313a207472616e736665722066726f6d20696e636f72726563742060008201527f6f776e6572000000000000000000000000000000000000000000000000000000602082015250565b60006136bf60258361281d565b91506136ca82613663565b604082019050919050565b600060208201905081810360008301526136ee816136b2565b9050919050565b7f4552433732313a207472616e7366657220746f20746865207a65726f2061646460008201527f7265737300000000000000000000000000000000000000000000000000000000602082015250565b600061375160248361281d565b915061375c826136f5565b604082019050919050565b6000602082019050818103600083015261378081613744565b9050919050565b7f45524337323155524953746f726167653a2055524920736574206f66206e6f6e60008201527f6578697374656e7420746f6b656e000000000000000000000000000000000000602082015250565b60006137e3602e8361281d565b91506137ee82613787565b604082019050919050565b60006020820190508181036000830152613812816137d6565b9050919050565b7f4e487b7100000000000000000000000000000000000000000000000000000000600052601260045260246000fd5b600060608201905061385d60008301866135bd565b61386a60208301856135bd565b6138776040830184612c09565b949350505050565b7f4552433732313a20617070726f766520746f2063616c6c657200000000000000600082015250565b60006138b560198361281d565b91506138c08261387f565b602082019050919050565b600060208201905081810360008301526138e4816138a8565b9050919050565b7f4552433732313a207472616e7366657220746f206e6f6e20455243373231526560008201527f63656976657220696d706c656d656e7465720000000000000000000000000000602082015250565b600061394760328361281d565b9150613952826138eb565b604082019050919050565b600060208201905081810360008301526139768161393a565b9050919050565b6000613988826128cd565b9150613993836128cd565b9250828210156139a6576139a56133ea565b5b828203905092915050565b600081519050919050565b600082825260208201905092915050565b60006139d8826139b1565b6139e281856139bc565b93506139f281856020860161282e565b6139fb81612861565b840191505092915050565b6000608082019050613a1b6000830187612962565b613a286020830186612962565b613a356040830185612c09565b8181036060830152613a4781846139cd565b905095945050505050565b600081519050613a6181612783565b92915050565b600060208284031215613a7d57613a7c61274d565b5b6000613a8b84828501613a52565b91505092915050565b7f4552433732313a206d696e7420746f20746865207a65726f2061646472657373600082015250565b6000613aca60208361281d565b9150613ad582613a94565b602082019050919050565b60006020820190508181036000830152613af981613abd565b9050919050565b7f4552433732313a20746f6b656e20616c7265616479206d696e74656400000000600082015250565b6000613b36601c8361281d565b9150613b4182613b00565b602082019050919050565b60006020820190508181036000830152613b6581613b29565b905091905056fea2646970667358221220351278531f4f3884f6b6213bf0b6485ab616c3b5b2c69f6bb54608a68bc3620b64736f6c63430008090033",
  "linkReferences": {},
  "deployedLinkReferences": {}
}